:100000000C9480040C94CD330C94B8040C94B80474
:100010000C94B8040C94B8040C94B8040C94B80470
:100020000C94B8040C94B8040C947E2B0C943A2BCA
:100030000C94D12C0C94B8040C94B8040C94B8040F
:100040000C94B8040C94B8040C94B8040C94B80440
:100050000C94B8040C94AD2C0C94B8040C94B80413
:100060000C94B8040C94B8040C94B8040C94B80420
:100070000C94B8040C94B8040C94B8040C94B80410
:100080000C94B8040C94B8040C94B8040C94B80400
:100090000C94B8040C94B8040C94B8040C94B804F0
:1000A0000C94B8040C94B8040C94B8040631FF09FD
:1000B00074A1010975150026FF00952075088102BD
:1000C0000976150026FF00952075089102C00501EC
:1000D0000902A10185020901A100050919012908E8
:1000E00015002501950875018102050109300931C6
:1000F0001581257F95027508810609381581257FB0
:10010000950175088106050C0A38021581257F9531
:100110000175088106C0C005010980A10185031988
:10012000012AB700150126B700950175108100C09E
:10013000050C0901A101850419012AA00215012657
:10014000A002950175108100C005010906A10105F5
:100150000719E029E7150025019508750181029529
:1001600001750881010507190029FF150026FF0008
:100170009506750881000508190129051500250156
:10018000950575019102950175039101C072676231
:10019000206D617472697820746F67676C65205B8D
:1001A00025735D3A207267625F6D61747269785F72
:1001B000636F6E6669672E656E61626C65203D20B7
:1001C00025750A0044454255473A206469736162C7
:1001D0006C65642E0A0044454255473A20656E61BD
:1001E000626C65642E0A004F6E6573686F743A2006
:1001F0006163746976653A2025640A000A00253037
:10020000325820006B6579626F6172645F7265704D
:100210006F72743A200029001E001F002000210088
:1002200022002B0014001A00080015001700E0003F
:1002300004001600070009000A00E1001D001B0071
:1002400006001900050000000000E300417E2800C0
:1002500024522A00270026002500240023004C00F9
:10026000130012000C0018001C00340033000F00B3
:100270000E000D000B00E5003800370036001000BE
:10028000110000000000E600427E2C00AC52350256
:100290001E021F0220022102220235001E001F0042
:1002A0002000210022004C00010050004F005200AD
:1002B0002F002C0901000100010051002F02000055
:1002C0000000010001004C0026022A00270226023D
:1002D00025022402230235002700260025002400E1
:1002E000230031022E025E005D005C003000010040
:1002F0002D005B005A00590030020000000062002F
:1003000001004C00270245003A003B003C003D0044
:100310003E0020781E021F022002210222022178C4
:10032000AC00AB00A9004B002D02A800AD00AE0050
:10033000AA004E002D000000000001000100010095
:100340003900440043004200410040003F003500B6
:10035000270226022502240223023100277825786D
:1003600023784A002E0001002878267824784D0052
:100370002E02000000000100010001000100010048
:1003800001000100010001000100260227022E00E9
:1003900037022F023002010001002D003702010058
:1003A0000100010001000100010001000100000046
:1003B00000000100010001000100007C01000100BB
:1003C0000100C200C10001000100010001000100A4
:1003D0000100010001000100010001000100010015
:1003E0000100010001000100010000000000010007
:1003F0000100010001002B78010001000100010053
:1004000021782C78010001000100010005782D7889
:10041000010001000100010001002E78010001002F
:1004200001000100010000000000010001000100C6
:100430000100DF00DE00DD0001000100010001001D
:100440000100D400D300D200D10001000100D0008F
:10045000CD00CE00CF0001000100DB00DA00D900A2
:10046000DC000000000001000100010001005461F7
:100470007267657420636F6E6E65637465640D0AE0
:100480000054617267657420646973636F6E6E6592
:10049000637465642C207468726F74746C696E6721
:1004A00020636F6E6E656374696F6E20617474652E
:1004B0006D7074730D0A004661696C656420746F19
:1004C00020657865637574652025730A007267621C
:1004D0005F6D61747269785F636F6E6669672E66BF
:1004E0006C616773203D2025640A007267625F6D4E
:1004F00061747269785F636F6E6669672E73706589
:100500006564203D2025640A007267625F6D617436
:100510007269785F636F6E6669672E6873762E7690
:10052000203D2025640A007267625F6D6174726904
:10053000785F636F6E6669672E6873762E73203DF1
:100540002025640A007267625F6D61747269785F6A
:10055000636F6E6669672E6873762E68203D20256E
:10056000640A007267625F6D61747269785F636FBD
:100570006E6669672E6D6F6465203D2025640A00F4
:100580007267625F6D61747269785F636F6E6669CE
:10059000672E656E61626C65203D2025640A0072DD
:1005A00067625F6D61747269785F636F6E666967B9
:1005B00020454550524F4D0A007267625F6D61746D
:1005C0007269785F696E69745F6472697665727367
:1005D000207267625F6D61747269785F636F6E66C7
:1005E00069672E6D6F6465203D20302E205772693B
:1005F00074652064656661756C742076616C7565E0
:100600007320746F20454550524F4D2E0A0072677B
:10061000625F6D61747269785F696E69745F64723C
:100620006976657273206565636F6E6669672069B8
:1006300073206E6F7420656E61626C65642E0A00B3
:1006400073757370656E64696E67206B6579626F30
:100650006172640D0A000A0025303862003A2000F9
:1006600025303258000A722F63203031323334354E
:1006700036370A000A0025303258006C65645F7412
:1006800061736B3A2000290A002575002F0025753B
:10069000005D2800256400200025640020002564FA
:1006A0000020002564007C0025303258006D6F75F5
:1006B00073656B6579205B62746E7C782079207637
:1006C00020685D287265702F61636C293A205B0099
:1006D0000001010101010101010102020202020205
:1006E00002020203030303030303030404040404D8
:1006F000040405050505050606060606070707079F
:100700000708080808090909090A0A0A0B0B0B0C53
:100710000C0C0D0D0D0E0E0E0F0F0F1010111111F0
:100720001212131314141515161617171818191971
:100730001A1A1B1B1C1D1D1E1E1F202021222223D6
:100740002424252626272829292A2B2C2D2D2E2F17
:1007500030313232333435363738393A3B3C3D3E2E
:100760003F404142434445464748494A4C4D4E4F1D
:1007700050515354555658595A5B5D5E5F616264DF
:10078000656668696B6C6D6F7072737577787A7B6C
:100790007D7E8082838587888A8C8E8F91939596C3
:1007A000989A9C9EA0A2A3A5A7A9ABADAFB1B3B5E3
:1007B000B7BABCBEC0C2C4C6C9CBCDCFD1D4D6D8BF
:1007C000DBDDDFE2E4E7E9EBEEF0F3F5F8FAFDFF5D
:1007D0006565636F6E6669675F7570646174655F98
:1007E0007267625F6D61747269785F646566617576
:1007F0006C740A005B435D005B445D005B535D000D
:100800005B575D005B525D0009025B00030100A0C5
:10081000FA0904000001030101000921110100018E
:1008200022440007058103080001090401000103B7
:10083000000000092111010001227B00070582034D
:100840002000010904020002030000000921110137
:10085000000122220007058303200001070503038E
:10086000200001120100020000000810CB567200A7
:10087000070102000118034900720069007300209B
:10088000005200650076002E002000370000000EA8
:10089000034B0065006500620069006F0000000402
:1008A000030904726762206D617472697820736550
:1008B00074207370656564205B25735D3A2025752F
:1008C0000A00726762206D617472697820736574C2
:1008D00020687376205B25735D3A2025752C25757D
:1008E0002C25750A00726762206D61747269782028
:1008F0006D6F6465205B25735D3A2025750A0000E5
:1009000011241FBECFEFDAE0DEBFCDBF04B603FE79
:1009100018C08091930590919405A0919505B09190
:1009200096058730904BA740B04B59F41092930531
:10093000109294051092950510929605E0E0F8E368
:10094000099525E0AEEFB2E001C01D92A339B207D0
:10095000E1F712E0A0E0B1E0E4EFFDE602C00590AF
:100960000D92AE3FB107D9F70E94F82C0C94813656
:100970000C940000FF93EF93E091FE02F091FF02D0
:10098000309709F00995EF91FF910895FC01859149
:10099000803011F0EFDFFBCF0895FF27E0E230E277
:1009A00047FF0CC0419597FF09C0EDE26095709537
:1009B00080959095611D711D811D911D27FF02C0BD
:1009C000219530E350E2AA27660F771F881F991FF1
:1009D000AA1FA41710F0A41B63955A95A9F7AA3073
:1009E00008F0A95FA05DAF93F395611571058105CE
:1009F000910541F7ED3211F4EF93F395F21718F4E6
:100A00003F93F395FBCF8F91B5DFFA95E1F708950A
:100A1000E991F9918591803021F0853219F0AADFB2
:100A2000F9CF089520E0E89455915532C1F3503341
:100A300011F4689455915A3348F4505390F3220FAF
:100A4000022E220F220F200D250FF4CF0EF4219538
:100A500089919991533619F3533729F1533559F147
:100A6000BC0188279927E8945C3621F489919991F3
:100A700068945591543639F446EF7EF077FF0DC0F7
:100A80008FEF9FEF0AC055374AE039F0583540E103
:100A900021F0523642E009F00895FF93EF937DDF95
:100AA000EF91FF91B7CFFF93EF93FC0181918030DD
:100AB000B9F360DFFBCFFF93EF9368DFF1CFDF93F4
:100AC000CF93CDB7DEB72596A3DFCF91DF91089501
:100AD000482F2091560590911D0557E0291302C01B
:100AE00080E0089530E0529FF001539FF00D1124F3
:100AF000E25EFA4F8181681306C08081481303C00B
:100B000085818111EECF2F5F3F4F2770E7CFE8ED52
:100B1000F0E080818E7F80831092E2001092DA00F4
:100B20001092E100A0EEB0E08C9181608C93808106
:100B30008F77808319BCA7EDB0E08C918E7F8C936A
:100B400080818F7E80831092060508952091E400B5
:100B50003091E50095E6A9012091EC00822F81708B
:100B600020FF06C08091E80080FF06C080E0089565
:100B70002091E80022FD1AC080911305882389F096
:100B8000853089F08091EB0085FD0FC02091E40055
:100B90003091E50042175307F9F29150E1F684E0F5
:100BA000089582E0089583E0089581E0089580919A
:100BB000150587FF13C08091E80082FF06C0809171
:100BC000E8008B778093E80004C0809113058111C1
:100BD000F2CF0895809113058823D9F38091E8001E
:100BE00080FFF8CF8091E8008E77ECCF982F90931C
:100BF000E900242F762F50E0891731F07091EC0036
:100C00002091ED005091F00021FD07C09F5F9730CB
:100C100071F78093E90081E008953091EB003E7F09
:100C20003093EB003091ED003D7F3093ED0030913B
:100C3000EB0031603093EB007093EC002093ED00FB
:100C40005093F0002091EE0027FDE0CF80E0089562
:100C5000B0E0A0E0EEE2F6E00C94F334C8EDD0E0B2
:100C600088818F7E8883E7EDF0E0808181608083DA
:100C700084E082BF81E08093060588818E7F88832F
:100C800002EE10E0F80110821092DA0081EEC82E18
:100C9000D12CF601108288818F77888388818068C3
:100CA000888388818F7D888319BC109213051092E8
:100CB0001405109212051092110590EEE92EF12CF8
:100CC000F70180818B7F808388818160888342E007
:100CD00060E080E00E94F605F60180818E7F8083CF
:100CE000F801808181608083808188608083F70142
:100CF00080818E7F8083888180618883CDB7DEB7D5
:100D0000E8E00C940F35FC0180911B0590911C05C7
:100D100086179707A0F06115710529F49091E800F6
:100D20009E779093E80090E06115710551F4911160
:100D300008C08091E80082FF34C080E00895BC01C3
:100D4000F2CF809113058823C1F18530C1F18091E4
:100D5000E80083FD30C08091E80082FDEACF8091F9
:100D6000E80080FFE1CF8091F3002091F200382F5E
:100D70006115710519F02830310558F091E02830DF
:100D8000310509F090E02091E8002E772093E800EB
:100D9000CBCF81918093F100615071092F5F3F4F5C
:100DA000E7CF80911305882341F0853041F0809191
:100DB000E80083FFBECF81E0089582E0089583E0DC
:100DC00008958091080508959C014FB7F89480918B
:100DD000FF0490910005A0910105B09102054FBF5D
:100DE000821B930B08952FB7F8946091FF047091C4
:100DF000000580910105909102052FBF08952FB73E
:100E0000F8948091FF0490910005A0910105B091A4
:100E100002052FBF08959C01FC0132969FEF80E0F0
:100E20004191461751F09F3F19F4411101C0982F8D
:100E30008F5F8630A9F79F3F09F40895290F311D70
:100E400097FD3A95F90162830895A3E0B0E0EBE2E3
:100E5000F7E00C94F9342091FC043091FD0428173C
:100E60003907A1F09093FD048093FC04E091FA040B
:100E7000F091FB04309751F024E029839B838A830F
:100E80000680F781E02DCE01019609952396E2E0D8
:100E90000C941535A3E0B0E0E0E5F7E00C94F934EC
:100EA0002091F8043091F90428173907A1F09093A4
:100EB000F9048093F804E091FA04F091FB04309770
:100EC00051F023E029839B838A830680F781E02DFC
:100ED000CE01019609952396E2E00C941535FC01AC
:100EE000680F791F8FEF91E32191822728E030E08E
:100EF00087FF09C0880F892721503109C9F7E617F4
:100F0000F70791F70895880FF7CFFA01811101C013
:100F1000FB010995089510922B04089580934901CF
:100F2000809189058370809348010E94A51583E014
:100F300080934E010895EF92FF920F939701201B2B
:100F400031092F3F310519F010F02FEF30E0322F2B
:100F50003095482F430F08F44FEF842F620F0F9105
:100F6000FF90EF900895EF92FF920F93972F09341F
:100F700038F4B701601B71096F3F710519F010F06B
:100F80006FEF70E0485F5F4F4131510540F0A901BC
:100F9000485F5F4F4131510510F06FEF70E0609591
:100FA000482F460F08F44FEF842F37FF02C02D5F04
:100FB0003F4F359527953595279560918A05620FA6
:100FC000792F0F91FF90EF900895EF92FF920F937A
:100FD0001F930E0D1F2D111DF90137FF03C0F19551
:100FE000E195F10924E0EE0FFF1F2A95E1F7EF3FAD
:100FF000F10519F014F0EFEFF0E09A0157FF03C08C
:1010000031952195310994E0220F331F9A95E1F72C
:101010002E173F070CF4F901E00FF11FEF3FF10528
:1010200019F010F0EFEFF0E0E095282F3E2F230F9E
:1010300008F42FEF822F1F910F91FF90EF900895EA
:10104000EF92FF920F93970195E0099F200D311DBC
:1010500011242F3F310519F010F02FEF30E02095CB
:10106000382F320F08F43FEF832F0F91FF90EF904E
:10107000089522E8241B08F420E0620F08954095AB
:10108000282F429F412D1124842F08950F931F93E1
:1010900010E0F801EE0FFF1FEF5CFD4F90819057BD
:1010A00097FD9195000F111FF801EB50FE4F05AD14
:1010B0000052110B2003F001219FF00D112408E3D1
:1010C00010E0091B110997FD139540039001419F02
:1010D000300D1124E20FF31F9F01220F331F2E0F3B
:1010E0003F1F37FF02C021583F4F220F232F221FDF
:1010F000330B620F1F910F9108950F931F93522F7F
:1011000010E0F801EE0FFF1FEB50FE4FA5ADA0520F
:10111000BB0B9D015203F001539FF00D1124000FF2
:10112000111FD801AF5CBD4F0C910057110B40034C
:101130009001419F300D11242E0F3F1F37FF02C039
:10114000215C3F4F96E0359527959A95E1F7620F20
:101150001F910F9108950F931F93522F10E0F801E4
:10116000EE0FFF1FEB50FE4FA5ADA052BB0B9D0134
:101170005203F001539FF00D1124000F111FD801ED
:10118000AF5CBD4F0C910057110B40039001419F84
:10119000300D11242E0F3F1F37FF02C021583F4F43
:1011A000220F232F221F330B620F1F910F910895DF
:1011B000EF920F93972F23E0029FB00111247595B2
:1011C00067956E0D792F0F91EF900895322F50E0B3
:1011D000FA01EE0FFF1FEB50FE4F95AD905297FDB9
:1011E0009195440F551FFA01EF5CFD4F2081231BA1
:1011F000330B290F311D97FD3A95620F0895E42FA7
:10120000F0E0EE0FFF1FEB50FE4F65AD621B08953F
:10121000E42FF0E0EE0FFF1FEF5CFD4F6081621BDB
:101220000895622F0895E42FF0E0EE0FFF1FEF5CAA
:10123000FD4F408134EE439F412D1124E82FF0E013
:1012400050E0445E5F4FDA01A21BB1099D01B7FF78
:1012500003C031952195310993E0220F331F9A95F0
:10126000E1F7AF01421B530B9A0157FD20E0582FC5
:10127000259F212D1124822F0895E42FF0E0EE0FF9
:10128000FF1FEF5CFD4F408134EE439F412D112441
:10129000E72FF0E050E0445E5F4FDA01A21BB10996
:1012A0009D01B7FF03C031952195310993E0220FCD
:1012B000331F9A95E1F7AF01421B530B9A0157FD7B
:1012C00020E0279F212D1124722F08950E94B80B32
:1012D0000895FF920F931F93CF93DF93182F062F3C
:1012E000F42ED0E0C0E02F2D402F612FCE010E94C0
:1012F00066092196C434D105B1F7CDB7DEB7E5E074
:101300000C941235FC019B01009729F480E077FFD3
:101310002BC080E80895AC0197FF04C044275527EF
:10132000481B590BB901640F751F37FD10C0241BF2
:10133000350BC901A5E0880F991FAA95E1F70E9416
:10134000403580E2861BF7FF0FC081950895CB01E1
:1013500065E0880F991F6A95E1F7BA01621B730B6C
:101360000E94403580E6EECF0895EF920F93CF9321
:10137000DF93D72FC82FC9010E19BA010E94820925
:10138000602F681B7D2F8C2FDF91CF910F91EF90F5
:1013900008950F93CF93DF93D72FC82FC901BA01B8
:1013A0000E948209682F600F7D2F8C2FDF91CF91D3
:1013B0000F910895EF920F931F93CF93DF93D62F42
:1013C000C72F182FC9010E19010FBA010E948209F7
:1013D000081B202F219F212D1124822F6D2F7C2F60
:1013E000DF91CF911F910F91EF900895EF920F939E
:1013F0001F93CF93DF93D62F172FC82FC9010E1934
:10140000070FBA010E948209702F781B719F712DFE
:1014100011246D2F8C2FDF91CF911F910F91EF90A1
:1014200008950F931F93CF93DF93D62FC72F182FB5
:10143000C901212F201B022FBA010E948209982F77
:10144000990F990F891B800F282F219F212D11247F
:10145000822F6D2F7C2FDF91CF911F910F910895D7
:101460000F931F93CF93DF93D62F172FC82FC90148
:10147000272F201B022FBA010E948209982F990F53
:10148000990F782F791B700F719F712D11246D2F7B
:101490008C2FDF91CF911F910F910895E82F86FD3A
:1014A000E0952E2F2F7086FD2F5FE695E695E69549
:1014B000E670F0E0E252FE4F9181929F902D212D37
:1014C000112492959F702295207F922B2081920F5C
:1014D00087FD919580E8890F0895AC0182309105D0
:1014E00008F408959FEF413E8EE1580740F49A01B9
:1014F00095E0369527959A95E1F798E0920F61E08F
:10150000E62FE90FFF27FF1F9F0135952795822FB3
:10151000229FF001239FF00DF00D11244E175F075D
:1015200038F49FEF920F961758F78FEF860F0895B4
:101530002F3FE9F361E0620FF6CF0F93CF93DF9374
:10154000D72FC82F47FD419588E390E0841B910970
:1015500047FD9395889FB001899F700D700D1124F0
:10156000229FC001239F900D900D1124860F971F7D
:101570000E946D0A982F990F890F682F600F7D2F99
:101580008C2FDF91CF910F91089530E020E0869F5E
:10159000212D969F200D311D1124C9010895AF9270
:1015A000BF92CF92DF92FF920F931F93CF93DF935F
:1015B000362F472FE82FF0E0E053F94F71110FC09D
:1015C000E4918E2F2E2F6E2F722FDF91CF911F91CE
:1015D0000F91FF90DF90CF90BF90AF900895C72FED
:1015E000D0E02491F22E022F10E056E0659FC0015A
:1015F0001124EFEFF0E0BF010E942C35832F90E023
:10160000880F991F35E5369FD001379FB00D112403
:101610008A1B9B0B982F990F980F6F01CC1ADD0A2C
:10162000C09ED001C19EB00DD09EB00D11248B2F55
:10163000499FA0011124452F55276F01C41AD50ACF
:10164000C09EA001C19E500DD09E500D11245F017F
:10165000A91AB108AC9E6001AD9ED00CBC9ED00C06
:101660001124CD2CDD24EC19FD09E09FE001E19F60
:10167000D00DF09FD00D1124ED2F62307105A1F037
:1016800050F46115710509F49ECF6130710581F048
:10169000EB2F852F98CF6430710569F080F06630AC
:1016A000710509F490CFF4CFE22F2B2F8D2F8BCF24
:1016B000E22F252F88CFEB2F822F2D2F84CF2B2F9A
:1016C0008F2DE52F80CF8091B00380FD16C081FD66
:1016D00016C082FD16C08091AF038823A1F0883226
:1016E00080F428E0829FC001112468E270E00E942B
:1016F0004035862F672B39F0089582E0089584E005
:10170000089588E0089581E008958091B00380FDF8
:1017100014C081FD14C082FD16C08091B1038823DE
:1017200081F08E3180F420E5829FC00111246EE1AA
:1017300070E00E944035862F089584E1089588E284
:10174000089588E0089580E50895282F35EB230358
:10175000C001112497FF04C080589109892F089572
:1017600080589F4FFBCF89B185FB882780F908956A
:10177000FF920F931F93CF93DF93EC01F62E042F6C
:10178000122F0E94B30B811123C0C232D1051CF16C
:10179000A297FE01EE0FFF1FDF01AC0FBD1FA45D7E
:1017A000BB4F11968C9111978F1107C08C918013AC
:1017B00004C012968C91811771F081E080932B0404
:1017C000EC0FFD1FE45DFB4FF1820083128303C029
:1017D000C232D105F4F2CDB7DEB7E5E00C94123594
:1017E000CF93C82F0E94B30B882329F081E0C23227
:1017F00028F080E003C081E0C434D8F7CF91089589
:10180000A8E0B0E0E6E0FCE00C94E934282E7C830C
:101810006B8320914B018EE0289F802D11248D83B6
:10182000825F8983853410F034E439830E94B30BDE
:10183000882329F08981833210F092E299830E94F3
:10184000B30B811105C0ED81E23210F4F2E2FD83A9
:1018500020915B052A839D81892F90E098878F8353
:10186000880F991FFC01EB50FE4F6F01822D90E015
:101870009C012F5F3F4F3E832D8389819F81981765
:1018800030F00E94F00B2896E2E10C940535EF81D0
:10189000F885E754FD4F808190914C018923F9F040
:1018A00030908A0540908B058D819E81855A9A4F94
:1018B0003C01522C10E0FA815F16D8F020918C0583
:1018C000129F112D1124632D742D812F0E94CF0A98
:1018D000462F282F672F8F8198850E9466092F81B8
:1018E00038852F5F3F4F38872F8332E0C30ED11CDE
:1018F000C4CFF30181913F01F601A4ACA81ABB0843
:1019000085ACF3018781881A9908AA9C9001AB9C49
:10191000300D300D1124889CC001899C900D900DD4
:101920001124820F931F0E946D0A082F60918D056C
:1019300021E0620F08F46FEFF301EE0FFF1FEB558C
:10194000F540858996890E94C50A7C019401A5010C
:10195000632D742D812FEB81FC810995362E472E46
:101960005394182FA8CFB0E0A0E0E9EBFCE00C9472
:10197000F3347C01C0914B018EE0C89FC02D11242F
:101980001EE01C0F153408F014E40E94B30B8823EA
:1019900019F0133208F012E20E94B30B811103C058
:1019A000C23208F4C2E220918D0531E0230F08F421
:1019B0002FEF30E050E040E06FEF7FEF80E090E00D
:1019C0000E941E366901D0E001E02C2FC11740F0C3
:1019D000812F0E94F00BCDB7DEB7E8E00C940F35F5
:1019E000FE01E754FD4F808190914C01892309F15C
:1019F00040915B054150042E000C550B47FF1BC066
:101A0000C60160918D05600F08F46FEF0E94C50A52
:101A1000AC0160918A0570918B0580918C05F7016E
:101A200009950E94CF0A462F282F672FCE010E94CA
:101A300066092196CACFFA01E55AFA4F81898213C5
:101A40000AC0FA01EE0FFF1FE55AFA4F818D928D01
:101A50008C159D05B0F241505109D0CFB0E0A0E007
:101A6000E4E3FDE00C94F1346C01C0914B018EE095
:101A7000C89FC02D11241EE01C0F153408F014E47B
:101A80000E94B30B882319F0133208F012E20E946F
:101A9000B30B811103C0C23208F4C2E260918D051C
:101AA0006695669580915705909158050E94C50AE4
:101AB000F82E80E48F0D0E944E0A90E8B92EB80EE1
:101AC0008F2D0E944E0A20E8A22EA80ED0E0C1174A
:101AD00040F0812F0E94F00BCDB7DEB7EAE00C9406
:101AE0000D35FE01E754FD4F808190914C01892313
:101AF000A1F060918A0570918B0580918C05EF2C87
:101B00000C2F2A2D4B2DF60109950E94CF0A462F46
:101B1000282F672FCE010E9466092196D8CFB0E00A
:101B2000A0E0E5E9FDE00C94ED345C01C0914B01CF
:101B30008EE0C89FC02D11241EE01C0F153408F044
:101B400014E40E94B30B882319F0133208F012E258
:101B50000E94B30B811103C0C23208F4C2E260914B
:101B60008D05669580915705909158050E94C50A8C
:101B7000F82ED0E0CE01880F991F9C012B503E4FCC
:101B80006901C11740F0812F0E94F00BCDB7DEB77D
:101B9000EEE00C940935FE01E754FD4F80819091F1
:101BA0004C01892379F1F60184AD282F2057330B9E
:101BB000490185ADE82FE052FF0B3F01889C900161
:101BC000899C300D300D1124EE9FC001EF9F900DC8
:101BD000900D1124820F931F0E946D0A082F6091AF
:101BE0008A0570918B0580918C05EF2C9301A401DF
:101BF000F50109950E94CF0A462F282F672FCE01A5
:101C00000E946609F2E0CF0ED11C2196BACFB0E057
:101C1000A0E0EDE0FEE00C94F2346C01C0914B01C9
:101C20008EE0C89FC02D11241EE01C0F153408F053
:101C300014E40E94B30B882319F0133208F012E267
:101C40000E94B30B811103C0C23208F4C2E260915A
:101C50008D05669580915705909158050E94C50A9B
:101C6000B82ED0E0CE01880F991F9C012B503E4F1B
:101C70007901C11740F0812F0E94F00BCDB7DEB77C
:101C8000E9E00C940E35FE01E754FD4F8081909100
:101C90004C018923C1F0F70125AD2052330B44AD2F
:101CA0004057550B60918A0570918B0580918C058A
:101CB0000B2DF60109950E94CF0A462F282F672F7A
:101CC000CE010E946609F2E0EF0EF11C2196D1CF01
:101CD000EF92FF920F931F93CF93DF937C01C091FC
:101CE0004B018EE0C89FC02D11241EE01C0F15343F
:101CF00008F014E40E94B30B882319F0133208F0A3
:101D000012E20E94B30B811103C0C23208F4C2E296
:101D100060918D056695669521E0620F08F46FEF7E
:101D200080915705909158050E94C50A082FD0E070
:101D3000C11740F0812F0E94F00BCDB7DEB7E6E06F
:101D40000C941135FE01E754FD4F808190914C01B8
:101D5000892391F060918A0570918B0580918C05A3
:101D6000202F4C2FF70109950E94CF0A462F282FCC
:101D7000672FCE010E9466092196DACFF894E82FEA
:101D8000E295EF70F0E031A1282F2F7081E090E014
:101D900001C0880F2A95EAF7982F9095932391A375
:101DA00092A1892B82A37894089590918A0392FF3F
:101DB00010C041E0282F2471243009F040E031E0C8
:101DC000282F2871283009F030E0431711F02CE05B
:101DD000822793FF10C041E0282F2471243109F09D
:101DE00040E031E0282F2871283109F030E0431716
:101DF00011F02CE0822730918B0330FF10C051E0AE
:101E0000282F2171213009F050E041E0282F28715E
:101E1000283009F040E0541711F029E0822731FF03
:101E200010C041E0282F2171213109F040E031E05C
:101E3000282F2871283109F030E0431711F029E0EC
:101E4000822794FD877E089582389105B9F1B0F418
:101E50008133910509F47DC048F48932910509F474
:101E60006DC08A32910509F47BC0089585339105D0
:101E700009F45FC08933910509F10895833E910506
:101E8000D9F138F4803E910529F1823E910579F12E
:101E90000895863E9105D9F1873E910509F43EC02B
:101EA000843E910541F520918B0321FF24C0809150
:101EB0008A0384FD19C087EE90E0089520918A037B
:101EC000237009F05AC020918B0323FF14C089E2CC
:101ED00090E0089520918A0320FD38C030918B0353
:101EE00030FF09C024FF43C090E080E008952091B6
:101EF0008A0322FDF7CF089520918A0322FD3AC07C
:101F000030918B0330FD39C024FFF5CFEDCF209108
:101F10008A0323FFF0CF24FDE7CFCDCF20918A03A2
:101F200023FD2EC030918B0331FFEECF84EE90E085
:101F3000089520918A0325FFDECFC9CF20918A031F
:101F400025FD21C020918B0323FFD5CF89E390E0AD
:101F5000D2CF20918A0326FFCECF8AE290E0089567
:101F600020918A0326FFC7CF81E390E0089583EE96
:101F700090E0089582EE90E0089580EE90E008955C
:101F800086EE90E0089585E390E00895972F7A30EB
:101F9000B8F46630A8F48530B0F470E026E0929F83
:101FA000600D711D1124FB019CE3899FE00DF11D63
:101FB0001124EE0FFF1FEA5EFD4F85919491089565
:101FC00080E090E0089581E0FCCF1F93CF93DF93F2
:101FD0000E94240FEC01C11580E5D807F0F5C1156A
:101FE00080E4D80708F09CC0C03ED10520F5CD3C68
:101FF000D10508F082C0C83AD10578F4C53AD105B8
:1020000008F073C0C130D10519F1209709F1C4302F
:10201000D105F0F4D0E0C0E01BC0C33CD105D0F73F
:10202000C85AD0E0CC0FDD1FCE56DE4F0990D881C4
:10203000C02DD4640DC0C11580E2D80708F0D1C00E
:10204000C11581E0D80708F05AC0C83ED10510F785
:10205000CE01DF91CF911F910895C03682E5D80758
:1020600018F5C03482E5D80708F06BC0C03282E5AD
:10207000D80708F05FC0C11582E5D80708F497C0FB
:102080002C2F2695269580E2289F900111248C2FD5
:102090008370C1E0D0E002C0CC0FDD1F8A95E2F76B
:1020A000C22BD32BDD68D4CFC03A82E5D80760F4C9
:1020B000C03882E5D80708F459C0CF71D0E0DC2FD2
:1020C000CC27C46FD06AC4CFC03C82E5D80708F4DF
:1020D00062C0C03E82E5D80708F09CCFDC2FCC2739
:1020E000CC27DF71C06FD06AB3CFC55AD0E0C157DB
:1020F000DE4FC881D0E0D064ABCFD065A9CF8D2FA3
:102100000E94D50E182FCE0199270E94240FC12FAF
:10211000D0E0DC2FCC27CC27DF71C82BD92B98CF70
:10212000CE0199270E94240FCC27DF70C82BD92B12
:10213000D06A8ECFCF71D0E0DC2FCC27C16FD06AB0
:1021400087CF2C2F26952695277080E2289F900117
:1021500011248C2F8370C1E0D0E002C0CC0FDD1FB2
:102160008A95E2F7C22BD32BDC6872CF2C2F2695F1
:102170002695277080E2289F900111248C2F837070
:10218000C1E0D0E002C0CC0FDD1F8A95E2F7C22B80
:10219000D32BDA685DCF8C2F8F710E94D50EC82F9C
:1021A000D0E0DC2FCC27CC27DF71D06251CF8C2F31
:1021B0008F710E94D50E55E0D695C7955A95E1F7D7
:1021C000CF70D0E0DC2FCC27282F30E084FF05C073
:1021D00044E0220F331F4A95E1F7C22BD32BD0697D
:1021E00037CF8D2F8F710E94D50E182FCE019927D2
:1021F0000E94240FC12FD0E0DC2FCC27CC27DF7129
:10220000C82BD92BD2CF809590913C0398239093E3
:102210003C0308958091560590911D05981301C0C7
:1022200008958F5F8770FACFB0E0A0E0EAE1F1E1B6
:102230000C94F2347C0100919105109192058091EB
:102240003D0390913E03082B192BCFE0D0E0CC2426
:10225000C394D12CBC2EC6010C2E02C0880F991F2E
:102260000A94E2F780239123892B49F4219790F770
:10227000B12C8B2DCDB7DEB7E9E00C940E35B7014C
:102280008C2F0E94C60F0E94E50F019779F3F1CFC2
:10229000CF93DF93EC010E941411BE010E94C60F80
:1022A0000E94E50FDF91CF9108959A3078F586303E
:1022B00068F5E82FF0E086E0989FE00DF11D11240D
:1022C0009E2F977083E0F695E7958A95E1F7EE0FDC
:1022D000FF1FEE0FFF1FE65FFC4F50E040E080E085
:1022E000219130E0092E02C0369527950A94E2F735
:1022F00021703327042E01C0220F0A94EAF7822BA3
:102300004F5F5F4F4430510559F7089580E00895BD
:102310009A3098F5863088F5E82FF0E086E0989FAF
:10232000E00DF11D11248E2F877041E001C0440F94
:102330008A95EAF783E0F695E7958A95E1F7EE0F3F
:10234000FF1FEE0FFF1FE65FFC4F30E020E070E064
:102350005191DF011197CB01022E02C0969587950E
:102360000A94E2F7817081958527842385278C93D1
:102370002F5F3F4F2430310559F708959093920510
:1023800080939105089580919105909192059C010B
:10239000267033272630310521F488600E94BE1153
:1023A0000895877FFBCF21E030E002C0220F331F6A
:1023B0008A95E2F72095309580919105909192054C
:1023C000822393230E94BE1108959091310380953A
:1023D000892380933103282F277069F4891759F0D6
:1023E00090918B0392FF07C08695869586950E94F3
:1023F000D31110923103089521E030E002C0220F82
:10240000331F8A95E2F78091910590919205822B76
:10241000932B0E94BE11089590933E0380933D0339
:102420000895FC0124812223C1F0808191810E94C2
:10243000481192959F70963091F058F4925F9F707A
:10244000923058F4803F19F030F4883E30F481E047
:1024500008959A5FF4CF843FD1F380E00895883ED9
:10246000B0F3813FD1F7F3CF829590E09C01220F2A
:10247000331F220F331F2C7C959587959595879553
:102480008373282B30E0C901880F991F8A7A35950C
:1024900027952575822B0895A6E0B0E0E2E5F2E1EC
:1024A0000C94F83449835A8349815A819923A1F0C5
:1024B000222391F0CA010E941411182F682F8981DC
:1024C0009A810E94881169817A81812F0E94C60FAA
:1024D0002696E3E00C941435CA010E945511182F7A
:1024E000F2CF90918905937031F1811125C09460EC
:1024F0009093890510924E018091870581608093A9
:1025000087058091880580FF16C080918905869592
:1025100086951F928F938DE591E09F938F9385EE23
:1025200098E09F938F930E945F050F900F900F90FC
:102530000F900F900F900895833210F09868D8CFC5
:10254000880F880F982BD4CF809189058695869522
:10255000815009F482E20E947112089580918905E8
:10256000869586958F5F833208F081E00E94711214
:10257000089520918905237059F180938A0560930D
:102580008B05493708F048E740938C052091870573
:102590002160209387052091880520FF19C01F9294
:1025A0004F931F926F9399279F938F938DE591E09F
:1025B0009F938F9382EC98E09F938F930E945F0587
:1025C0008DB79EB70A960FB6F8949EBF0FBE8DBF0B
:1025D0000895E9E8F5E0438120E1421B08F440E07A
:1025E0008181628190E00E94B9120895E9E8F5E0E6
:1025F000438120E1420F08F44FEF8181628190E036
:102600000E94B9120895E9E8F5E0628120E1621BB9
:1026100008F460E08181438190E00E94B91208953E
:10262000E9E8F5E0628120E1620F08F46FEF818153
:10263000438190E00E94B9120895E9E8F5E08181B4
:10264000438162818850990B0E94B9120895E9E88C
:10265000F5E0818190E04381628108960E94B91281
:10266000089580938D0590918705916090938705DB
:102670009091880590FF12C01F928F938DE591E095
:102680009F938F9383EA98E09F938F930E945F05B7
:102690000F900F900F900F900F900F9008958091D2
:1026A0008D0520E1382F321B08F430E0832F0E9483
:1026B0003113089580918D0520E1382F320F08F4F1
:1026C0003FEF832F0E94311308958091880583FF87
:1026D0007EC08DEA96E00E94C6048091B7031F92E7
:1026E0008F9388EA96E09F938F930E945F0586EA16
:1026F00096E00E94C6048091B803282F082E000C93
:10270000330B3F938F9383EA96E09F938F930E94BE
:102710005F0581EA96E00E94C6048091B903282FE4
:10272000082E000C330B3F938F938EE996E09F9316
:102730008F930E945F058CE996E00E94C604809109
:10274000BA03282F082E000C330B3F938F9389E98F
:1027500096E09F938F930E945F0587E996E00E9421
:10276000C6048091BB03282F082E000C330B3F9327
:102770008F9384E996E09F938F930E945F0581E990
:1027800096E00E94C6048091B1031F928F938EE859
:1027900096E09F938F930E945F058CE896E00E94DD
:1027A000C6048091B0031F928F9389E896E09F93AF
:1027B0008F930E945F0586E896E00E94C6048DB75D
:1027C0009EB74C960FB6F8949EBF0FBE8DBF0E9469
:1027D000FF069C019091B8038091B903982B21F0DA
:1027E0003093B5032093B4039091BA038091BB0357
:1027F000982B21F03093B3032093B203E091FA04B5
:10280000F091FB04309749F082E08093B603048096
:10281000F581E02D86EB93E009950895662309F490
:102820005DC08D3C41F40E94850B81958093B90376
:102830000E94651308958E3C19F40E94850BF6CF13
:102840008F3C31F40E94850B81958093B803F0CFC3
:10285000803D19F40E94850BF8CF893D29F40E9430
:10286000630B8093BA03E4CF8A3D21F40E94630B8B
:102870008195F7CF8B3D31F40E94630B8195809356
:10288000BB03D6CF8C3D19F40E94630BF8CF9FE2B7
:10289000980F983070F4815D990B21E030E001C011
:1028A000220F8A95EAF78091B703822B8093B703B2
:1028B000BFCF8D3D31F48091B00381608093B00330
:1028C000B7CF8E3D21F48091B0038260F7CF8F3D6A
:1028D00009F0AECF8091B0038460F0CF4091B8038F
:1028E0008D3C59F48091B90387FF0DC01092B90354
:1028F00041110BC01092B10308C08E3C81F480914D
:10290000B90318169CF3442381F08091BA03909187
:10291000BB03892B09F08CCF1092AF0389CF8F3C7A
:1029200049F447FFF0CF1092B8038091B9038111A9
:10293000ECCFE0CF803D19F41416ACF3E4CF9091C6
:10294000BA03893D29F41916F4F61092BA03DBCFC5
:102950008A3D19F497FFD7CFF8CF9091BB038B3DF9
:1029600029F497FFD0CF1092BB03CDCF8C3D19F443
:102970001916CCF3C8CF9FE2980F983090F4815D80
:10298000990B21E030E0B90102C0660F771F8A95EC
:10299000E2F7CB0180959091B70389238093B70329
:1029A000B2CF8D3D31F48091B0038E7F8093B00320
:1029B000AACF8E3D21F48091B0038D7FF7CF8F3D5C
:1029C00009F0A1CF8091B0038B7FF0CF9FB7F8942F
:1029D000109204059FBF90911305943009F048C0F0
:1029E0002091E9002F703091EC00932F917030FD11
:1029F00090E8922B23E02093E9002091EB0020FF48
:102A000034C02091EE0027FF30C02091030522231F
:102A100021F02091E80025FF28C01092030526E050
:102A20003091E80035FF14C08093F1008091E800F8
:102A300085FD27C08091E80080FFFCCF8091E800F1
:102A40008E778093E8009F709093E90080E008956E
:102A500030911305343049F43091EB0035FD05C059
:102A6000215041F481E0809303059F709093E90029
:102A70008FEF0895EFE9FFE03197F1F700C0000014
:102A8000CFCF8FB7F89421E0209304058FBFDBCF21
:102A90000F931F93CF93DF938B01EA01909113055E
:102AA000943061F58093E9008FEF9091E8008150B8
:102AB00095FD06C095ED9A95F1F700008111F5CFCF
:102AC0008091E80085FF1AC00E94A605811111C0FF
:102AD0008091E80085FD06C08091E8008E778093A4
:102AE000E800F2CFF80181918F018093F1002197E6
:102AF00079F78091E8008E778093E800DF91CF919D
:102B00001F910F91089543E050E0BC0182E00E94C4
:102B10004815089546E050E0BC0182E00E94481547
:102B20000895CF93DF93EC0148E050E0BC0181E0D1
:102B30000E94481588E0FE01A9E0B5E001900D92E1
:102B40008A95E1F7DF91CF91089580912B04882336
:102B500041F16E9A3EB13F7B2EB120644FB7F8949D
:102B60008CE294E0FC015191CF0168E02EB90000A5
:102B700000C057FF3EB9550F000000C000C000C0A4
:102B80003EB900C06A9591F7F4E0883F9F0751F77E
:102B90004FBF8FE594E00197F1F700C0000010925D
:102BA0002B040895B0E0A0E0E8EDF5E10C94EE34DC
:102BB0007C015B01842E752E690180914C0301E03C
:102BC00010E08A3010F40AE010E0C1E0D0E0B50176
:102BD000C701F6010995982E811114C021960C1792
:102BE0001D07B4F48091880580FF0CC07F928F92FE
:102BF00087EB94E09F938F930E945F050F900F9057
:102C00000F900F90892DCDB7DEB7EDE00C940A350B
:102C1000CC9F9001CD9F300D300D112490E080E0CD
:102C200045E34A95F1F70000019628173907C1F7E7
:102C3000CECF80914B03811110C08091D80080616C
:102C40008093D8008AE18A95F1F700C08091D9007D
:102C500080FF0AC081E080934B0381E090914B0399
:102C6000913009F080E0089582E080934B030E9448
:102C7000870510921305F1CF0E941916882359F089
:102C8000E091FA04F091FB04309729F00190F08173
:102C9000E02D0995089580E008950F931F930E94F9
:102CA0001916882329F00E94F3061F910F910895A9
:102CB0000E94F306009178031091790320917A0322
:102CC00030917B03600F711F821F931FEECFCF9255
:102CD000DF92EF92FF926B017C010E94191688230C
:102CE000A1F02FB7F8946091FF04709100058091D6
:102CF0000105909102052FBF6C197D098E099F096E
:102D0000FF90EF90DF90CF9008950E944D16F4CF82
:102D10000E944D1608958091880580FF08C080EDBF
:102D200097E09F938F930E945F050F900F9085E32C
:102D30008093890580914F0190915001A09151019C
:102D400080938A0590938B05A0938C058FE78093E1
:102D50008D058FEF80938E0548E050E068E170E0CC
:102D600089E895E00E94EA35109287050895B0E061
:102D7000A0E0EDEBF6E10C94EC34F82E80914901E3
:102D80008F1124C09091890593702091480130E003
:102D900081E09217130609F480E0817080934D0161
:102DA00080918E0590914C01981739F080934C01D9
:102DB00040E060E080E00E94690922E22F1560F0A7
:102DC000EF2DF0E0ED57F94C0C94543581E0E5CF50
:102DD00080914D01811102C080E074C140E060E04B
:102DE00080E00E946909F8CFC0914B018EE0C89F36
:102DF000C02D11241EE01C0F153408F014E40E94AD
:102E0000B30B882319F0133208F012E20E94B30BBF
:102E1000811103C0C23208F4C2E260918A05709148
:102E20008B0580918C050E94CF0A062FE72ED82EA5
:102E3000D0E0C11720F0812F0E94F00B43C1FE01AA
:102E4000E754FD4F808190914C01892331F02D2D65
:102E5000402F6E2DCE010E9466092196EACFC091C7
:102E60004B018EE0C89FC02D11241EE01C0F1534AD
:102E700008F014E40E94B30B882319F0133208F011
:102E800012E20E94B30B811103C0C23208F4C2E205
:102E9000E0908B0500918C05D0918A056D2F7E2DD9
:102EA000802F0E94CF0AD62EC72EB82E60918D0596
:102EB0006D0F7E2D802F0E94CF0A062FE72EA82EA1
:102EC000D0E0C11708F0B7CFFE01E754FD4F908165
:102ED00080914C01892359F02A2D402F6E2D90FDB1
:102EE00003C02B2D4D2D6C2DCE010E94660921961D
:102EF000E8CFC0914B018EE0C89FC02D11241EE089
:102F00001C0F153408F014E40E94B30B882319F049
:102F1000133208F012E20E94B30B811103C0C232D7
:102F200008F4C2E2E0908B05D0908C0520918D05CD
:102F300000E4029F012D1124D0E0C11708F07BCFDF
:102F4000FE01E754FD4F808190914C018923B9F037
:102F5000FE01EE0FFF1FEB50FE4F85AD82958F7087
:102F600060918A05809F600D11247E2D8D2D0E9419
:102F7000CF0A462F282F672FCE010E94660921967F
:102F8000DCCFC0914B018EE0C89FC02D11241EE004
:102F90001C0F153408F014E40E94B30B882319F0B9
:102FA000133208F012E20E94B30B811103C0C23247
:102FB00008F4C2E2E0908B05D0908C0520918D053D
:102FC00000E4029F012D1124D0E0C11708F033CF97
:102FD000FE01E754FD4F808190914C018923D9F087
:102FE000FE01EE0FFF1FEB50FE4F64AD069FB001D8
:102FF0001124E5E075956795EA95E1F780918A05DA
:10300000680F7E2D8D2D0E94CF0A462F282F672F07
:10301000CE010E9466092196D8CFC0914B018EE067
:10302000C89FC02D11241EE01C0F153408F014E4B5
:103030000E94B30B882319F0133208F012E20E94A9
:10304000B30B811103C0C23208F4C2E200918A05B9
:10305000D0918B05E0908C0560918D056695669505
:10306000669580915705909158050E94C50A0E9467
:103070004E0A805887FD8195880F282F3E2D239F6B
:10308000212D1124822F602F7D2F0E94CF0A062F21
:10309000E72ED82ED0E0C11708F0CDCEFE01E754C0
:1030A000FD4F808190914C01892331F02D2D402FCF
:1030B0006E2DCE010E9466092196EDCF8DE399E039
:1030C0000E94680E90914B019F5F90934B0181117C
:1030D0000CC082E080934E0180914D01811105C0AA
:1030E000F11003C083E080934E01CDB7DEB7EFE06F
:1030F0000C94083583E199E0E3CF80E39AE00E94E5
:10310000070EE0CF81E19AE0FACF86EF99E00E94C6
:103110008F0DD8CF8AED99E0FACF81E199E0D0CF39
:1031200088E099E0CDCF8FEF98E0CACF86EE98E0A7
:10313000C7CF88ED98E0EBCF8DE99AE0E0CF89EC3E
:1031400099E0DDCF85EB99E0E2CF8BEA98E00E9431
:103150002E0DB8CF8DE798E0FACF86E498E0F7CF50
:10316000E0904B018EE0E89EE02C11240EE00E0D65
:10317000053408F004E40E94B30B882319F00332ED
:1031800008F002E20E94B30B811105C082E2E8164A
:1031900010F442E2E42E80914D01882361F040E07A
:1031A00060E080E00E946909E1ECF3E08CE3DF017C
:1031B0001D928A95E9F780914B01811115C080918C
:1031C000BD039091BE030E94E40621E08931910580
:1031D00008F420E02093BC03499730F00E94FF06DA
:1031E0009093BE038093BD03A12C912CB12C96E04B
:1031F000792E25E5622E3AEA832E5524539405C094
:103200009DE0991508F453C0B12C2B2D30E07A9C29
:10321000E0011124FE01EB50FE4FE20FF31FC080CE
:10322000CE1408F43CC0C01608F039C09394D12CD9
:10323000F601E754FD4F808190914C01892309F4F8
:103240002EC0CF53DC4FC20FD31F1881312F262D34
:10325000321B08F430E070918B05282D210F08F403
:103260002FEF40918C05822F880F820F8E5F282FC1
:10327000249F212D1124822F682D631B0E94CF0AC9
:10328000462F282F672FC6010E9466098091BC0334
:10329000882329F0352D131B08F410E01883B3940C
:1032A00046E0B412B2CFA3948AE0A812A9CF802F2F
:1032B000C3CDE0908C05A3E0EA9EE0011124D695F1
:1032C000C795D695C7955C2EAE2CB12C8FEF90E0AC
:1032D000B5010E944035762E80914D01882371F012
:1032E00040E060E080E00E946909E1ECF3E08CE3FB
:1032F000DF011D928A95E9F71092C0038091BF0308
:103300008F5F8093BF0310E000E0AC1ABD0A680134
:10331000612CC8018F539C4F4C018091C0038629BA
:1033200009F040C00E94A63585359540DCF5F401D2
:10333000E082F601EB50FE4FE081EF3FC9F0D6018D
:10334000AF53BC4F2C91F0E05216E0F530E02C1B4F
:103350003D0B2C9FC0012D9F900D3C9F900D112483
:10336000B5010E942C35262F4E2DCF010E946609F3
:103370006394F6E0CF0ED11C2AE06212CECF0F5F2D
:103380001F4F0630110519F68091BF03781202C055
:103390001092BF038091C0038F5F8D31E8F480935A
:1033A000C0031ACDF601EF53FC4F8081882309F248
:1033B0008E1508F0BECF9091BF037912BACF81501D
:1033C0008083B7CFE29EC0011124BE010E942C353C
:1033D000462F20E060E0C9CF1092C00321EF33E018
:1033E00089E09FEF9E0DA1ECB3E0F901893041F433
:1033F000D6964C91D697E41203C0D6969C93D69756
:1034000040814E1510F09083E6821196319643E08C
:10341000A73CB40759F78150265031098111E3CFF9
:10342000DBCC8FE398E00E94B30C4CCE89E398E0AC
:10343000FACF80915B0521E0382F321B08F430E091
:10344000832F60E278E00E94000C3CCE60E278E0DE
:1034500080E0F9CF80915B0521E0482F421B08F402
:1034600040E0842F65EE77E0EECF65EE77E0F0CFB9
:1034700080915B0521E0382F321B08F430E0832F68
:1034800063EB77E0E0CF63EB77E0E2CF80915B0521
:1034900021E0482F421B08F440E0842F6BE977E0DD
:1034A000D2CF6BE977E0D4CF4F925F926F927F9249
:1034B0008F929F92AF92BF92CF92DF92EF92FF9244
:1034C000CF936091260470912704809128049091F5
:1034D00029040E9467166B017C010E944D164B0166
:1034E0005C018092260490922704A0922804B09256
:1034F0002904A091FD03EDEFF3E08A2F90E04FEF58
:103500005FEF60E070E04C195D096E097F09A91357
:103510002AC08093FD0380912A04C0E0811108C075
:1035200080918905C82FC37019F0C82FC695C6951C
:1035300080914E01813009F440C0882339F18230F6
:1035400009F445C0833009F446C0CF91FF90EF9055
:10355000DF90CF90BF90AF909F908F907F906F90B3
:103560005F904F900895218D328D2901712C612C2F
:10357000441555056605770520F481509F5F329606
:10358000C6CF2C0D3D1D328F218FF8CF10924B01ED
:103590008092570590925805A0925905B0925A050D
:1035A00089E2EDEFF3E0ABE5B5E001900D928A958D
:1035B000E1F781E080934E01C8CF8C2F0E94B716AF
:1035C000CC2319F20E94B30B0E94B30BBECF8C2FF9
:1035D0000E948E07BACF80918705882351F048E07A
:1035E00050E068E170E089E895E00E94EA351092C9
:1035F0008705609157057091580580915905909104
:103600005A050E946716603171058105910508F41D
:103610009CCF10924E0199CFAFE0B0E0E2E1FBE128
:103620000C94EE348E010F5F1F4F8AE0D8011D927B
:103630008A95E9F78AE3C82E81E0D82EF12CE12C97
:10364000AA24A394B12C2AE3822E21E0922EF60123
:1036500081916F018F3F09F442C0F894E82FE29501
:10366000EF70F0E021A18F70A50102C0440F551F3B
:103670008A95E2F7CA01922F982B91A392A1809587
:10368000892382A3789400C0E4E3F1E0712C31E057
:1036900021912F3F09F46BC0A22FA295AF70B0E02B
:1036A00090968C9190E02F7002C0959587952A9501
:1036B000E2F780FD5CC0832F782A330F8E169F06B9
:1036C00039F7F601319780818F3F11F00E94BE0ECD
:1036D00050EA5A95F1F7F801EE0DFF1D70828FEF59
:1036E000E81AF80A95E0E916F10409F0B0CF4AE0CB
:1036F00050E0B8018EE793E00E94B635009741F0A4
:103700002AE0F801AEE7B3E001900D922A95E1F7C7
:1037100000918903892B69F181E0809343030E9422
:10372000FF0690934203809341038091410390915F
:1037300042030E94E406059700F110E004571C4F75
:1037400045E050E06EE773E0C8010E94B635C12C39
:10375000892B51F085E0EEE7F3E0D80101900D925E
:103760008A95E1F7CC24C3941092430307C080E00C
:10377000A3CF809143038111D8CFC12C0E94191689
:10378000D82EE0918903DE011B967D01882309F480
:1037900099C085E01D928A95E9F70E2F10E0045735
:1037A0001C4FB0904C03B9E0BB1508F447C026E1AC
:1037B00033E244E651E0B701C8010E94D2158823E4
:1037C00009F45EC02DEB32E241E751E0B701C801D8
:1037D0000E94D215882309F453C022EC31E249E754
:1037E00051E0B701C8010E94D215882309F448C0EE
:1037F00020E631E244E851E0B701C8010E94D21549
:103800008823F1F1F9E0FB1508F453C010924C0342
:103810008091880390E045E050E0B70184579C4FC9
:103820000E94B63521E020934A03892BE1F4D12C84
:103830008D2D8C292F96EDE00C940A358091440350
:10384000909145030E94E406843F914008F0AFCF79
:1038500080914A03882359F385E0D7011D928A9508
:10386000E9F710924A03A0918803B0E0A457BC4F37
:1038700085E0FE013B9601900D928A95E1F7D8CF45
:1038800080914C038F3F31F08F5F80934C038A30DF
:1038900008F4BECF0E94FF06909345038093440333
:1038A0008091880580FFD4CF81E894E00E94C6040F
:1038B000CFCF8091880580FFA9CF8EE694E00E944B
:1038C000C604A4CFF0E0E457FC4F85E0AFE5B3E0D9
:1038D00001900D928A95E1F765E070E08FE593E045
:1038E0000E946F0780935E034091A90350E06091AE
:1038F000A80370E060567C4FC7010E94C3358B85DA
:103900009C85909366038093650362E070E0C70135
:103910000E946F0780936403809067039090680310
:10392000A0906903B0906A03809146039091470389
:10393000A0914803B091490388169906AA06BB06D0
:10394000D1F08092460390924703A0924803B09230
:1039500049030E94191681110EC00E94F306861AAF
:10396000970AA80AB90A8092780390927903A092E4
:103970007A03B0927B0388E0EBE6F3E0A9E8B5E0D8
:1039800001900D928A95E1F710917303112349F08C
:1039900080912A04811105C00E94B71680E00E9420
:1039A0008E0710932A0444CF0F931F93CF93DF9376
:1039B00080913C0390913B03892B8093000390916D
:1039C0003A03992391F0892B8093000320E082E051
:1039D00093E0FC013191CF0131112F5FF3E088308A
:1039E0009F07B9F7211110923A0348E050E062E3D3
:1039F00073E080E093E00E94B635892B09F441C062
:103A000088E0E0E0F3E0A2E3B3E001900D928A9554
:103A1000E1F7E091FA04F091FB04309791F1028014
:103A2000F381E02D80E093E009958091880582FF85
:103A300028C080FF04C084E092E00E94C604D0E069
:103A4000C0E00EEF11E08091880580FF0EC0FE01FE
:103A5000E050FD4F80811F928F931F930F930E9420
:103A60005F050F900F900F900F902196C830D105F1
:103A700051F78091880580FF04C08CEF91E00E948F
:103A8000C604DF91CF911F910F910895CF931092AB
:103A90003C03C6E0E2E0F3E0DF018C2F1D928A9543
:103AA000E9F790E080E00E944A0790E080E00E9401
:103AB000250710923B030E94D41CE6EBF3E0DF01E4
:103AC0001D92CA95E9F71092B1031092AF031092BC
:103AD000B0030E946513CF910895AAE2B0E0E3E736
:103AE000FDE10C94F83485E195E02091F100DC01D2
:103AF0002D93CD01B5E08D319B07B9F78091160567
:103B0000833009F470C0B8F4813009F447C08230C2
:103B100009F4B1C08091E80083FF84C2809115054B
:103B2000909116059A3008F07DC2E92FF0E0EA5531
:103B3000F94C0C9454358A3009F48CC08B3009F45C
:103B40006FC0893039F780911505813219F780915E
:103B5000190590911A050297E8F68091E800877F91
:103B60008093E8008091E80082FF38C09091F300D4
:103B70008091F200029731F48091F100813011F0D0
:103B8000863021F48091F100809308058091E8004F
:103B90008B778093E8000E94D705BCCF80911505F4
:103BA000813A09F0B7CF8091E800877F8093E800E1
:103BB0008091190590911A05892B61F468E089E0DC
:103BC00095E070E00E9483068091E8008B778093F7
:103BD000E800A0CF60E090E080E0F3CF8091130593
:103BE0008111C0CF97CF80911505813A09F092CF0E
:103BF0008091190590911A05892B09F08BCF80913E
:103C0000E800877F8093E8008091E80080FFFCCF88
:103C100080914A018093F1008091E8008E77B9CFBE
:103C200080911505813209F075CF80911905909129
:103C30001A05892B09F06ECF8091E800877F809369
:103C4000E8000E94D7058091170580934A010E94E1
:103C5000461D60CF80911505813209F05BCF8091C0
:103C6000E800877F8093E8000E94D70580911805BF
:103C7000809307054FCF80911505813A09F04ACF0F
:103C80008091E800877F8093E8008091E80080FFC2
:103C9000FCCF80910705BECF803899F0823809F0BB
:103CA000C1C1809119058F70873008F0BBC1809326
:103CB000E9008091EB0085FB882780F91092E900EC
:103CC00006C080911105909112059111826090912A
:103CD000E800977F9093E8008093F1001092F10044
:103CE0008091E8008E779AC1882309F488C18230D8
:103CF00009F098C18091170581118BC18091190538
:103D00008F702FEF280F263008F08CC18093E900C8
:103D10002091EB0020FF7DC1933031F48091EB00C6
:103D200080628093EB0075C19091EB00906190935D
:103D3000EB0021E030E001C0220F8A95EAF72093E2
:103D4000EA001092EA008091EB008860EACF8111CE
:103D500069C1109117051F778091E3008078812B4E
:103D60008093E3008091E800877F8093E8000E94C1
:103D7000D7058091E80080FFFCCF8091E300806848
:103D80008093E30082E0111183E0809313054AC120
:103D90008058823008F046C12091170530911805EF
:103DA0002C3DE3E03E07A1F583E08A838AE2898324
:103DB0004FB7F894DE01139620E03EE051E2E32F86
:103DC000F0E050935700E49120FF03C0E295EF70BC
:103DD0003F5FEF708E2F90E0EA30C0F0C7968D9372
:103DE0009D932F5F243159F74FBF8091E800877F63
:103DF0008093E8006AE270E0CE0101960E9483069B
:103E00008091E8008B778093E8000CC1C096E7CFE3
:103E10008091190590911A05432F5527433051057C
:103E200009F44AC078F54130510509F47AC08BE5B0
:103E300090E0E8E0F8E04230510509F0F3C020914D
:103E4000E800277F2093E80020911B0530911C0596
:103E50008217930708F49C0140E02115310509F011
:103E600065C0411163C08091E80082FDC9CF809197
:103E70001305882329F2853019F28091E80083FF29
:103E8000F2CFBECF4132510509F43CC04232510558
:103E900009F0C8C08330910508F0C4C0FC01EE0FE2
:103EA000FF1FE751FE4F0190F081E02D8A519E4F98
:103EB000DC018C9190E01AC0332721303105D1F01C
:103EC0002115310561F02230310509F0ABC0E5E77D
:103ED000F8E0E4918E2F90E0E5E7F8E007C0EFE925
:103EE000F8E0E4918E2F90E0EFE9F8E0009709F414
:103EF00099C0A5CFEFE8F8E0E4918E2F90E0EFE8CD
:103F0000F8E0F4CF8330910508F08CC0880F991F3A
:103F1000FC01E151FE4F0190F081E02D89E090E03D
:103F20008ECF82E190E0E3E6F8E089CF809113053F
:103F3000882309F465CF853009F462CF8091E800C9
:103F400083FD5ECF8091E80082FD8DCF8091E800F7
:103F500080FF83CF9091F3008091F200211531050D
:103F600019F08830910550F041E0089709F040E0E1
:103F70008091E8008E778093E8006FCF4491409362
:103F8000F1003196215031090196E8CF803809F0CF
:103F900049C08091E800877F8093E80080911405F4
:103FA0008093F1009DCE81113DC010911705123014
:103FB000C8F58091E800877F8093E800109314058E
:103FC0000E94D705112311F084E005C08091E30021
:103FD00087FDFACF81E08093130542E061EC81E038
:103FE0000E94F60542E261EC82E00E94F60542E2A0
:103FF00061EC83E00E94F6058091130513C0809167
:104000001705813079F481E0933009F080E08093E6
:1040100012051092E9008091E800877F8093E80004
:104020000E94D7058091E80083FF0AC08091E800D4
:10403000877F8093E8008091EB0080628093EB00A3
:10404000AA96E3E00C9414350E94461D2FEF84E3FA
:104050009CE0215080409040E1F700C0000088E1E2
:104060009CE00FB6F894A895809360000FBE9093E3
:104070006000FFCF882321F00E9403110E94D41C0E
:104080000895882339F090913C03982B90933C033A
:104090000E94D41C08958823D1F19CEF980F913A87
:1040A00078F4E2E0F3E09191891303C0DF01119706
:1040B0001C9293E0E830F907B1F70E94D41C0895F0
:1040C00090E2980F983050F4877091E001C0990FFA
:1040D0008A95EAF7892F0E940311EFCF9BE5980F8D
:1040E000933028F490E080E00E944A07089598E514
:1040F000980F9B3128F490E080E00E9425070895F6
:1041000093E3980F933118F460E00E940E14089521
:10411000CF93C82F8823B1F08CEF8C0F813A00F534
:10412000E2E0F3E088E093E0DF012D91C21761F057
:104130008A179B07D1F76C2F80E093E00E940B0752
:104140000E94D41CCF9108952191C21303C0DF01B6
:1041500011971C928E179F07B9F70E94D41CEBCFC2
:1041600080E28C0F883068F4C77021E030E001C035
:10417000220FCA95EAF780913C03822B80933C037F
:10418000DFCFEBE5EC0FE33040F4F0E0E157FE4F1A
:10419000808190E00E944A07D5CFE8E5EC0FEB3133
:1041A00050F4F0E0EE0FFF1FEE56FE4F808191813C
:1041B0000E942507C7CF83E38C0F833118F661E097
:1041C0008C2F0E940E14BECFCF93C82F0E94882040
:1041D0008C2F0E944B20CF9108950F931F93CF9364
:1041E000DF93C62FD42F022FFC0185818823A9F0ED
:1041F000609386050E94FF06909385058093840551
:10420000C77081E001C0880FCA95EAF70E9441207B
:10421000DF91CF911F910F910895809186056813CA
:1042200032C080918405909185050E94E406883C07
:10423000910548F510E21D0FCD17B9F080E28C0F03
:10424000883040F4C77081E001C0880FCA95EAF752
:104250000E943A20183048F481E09D2F977001C0E9
:10426000880F9A95EAF70E944120802F0E94E4204F
:10427000183070F6D77081E001C0880FDA95EAF740
:104280000E943A20C5CFC77081E001C0880FCA954F
:10429000EAF7F6CF811108C089EA611101C08AEA04
:1042A0000E94E42080E00895813029F48EE46111B9
:1042B000F7CF8BE4F5CF823079F3833099F7F6CFDF
:1042C000A9E0B0E0E6E6F1E20C94F73488E0E9E832
:1042D000F5E0DE01119601900D928A95E1F780914B
:1042E0002A04898749E050E06BE673E0CE0101962D
:1042F0000E94B635009174031091750320917603E6
:1043000030917703EFB7F8944091FF045091000586
:104310006091010570910205EFBF401B510B620BCC
:10432000730B443651056105710518F411E0892BB2
:1043300021F180912D0190912E01825A9C4F409144
:104340002C0150E04A30510510F049E050E0BE0128
:104350006F5F7F4F0E94C33585E090E00E94733409
:10436000182F882351F00E94F30660937403709312
:1043700075038093760390937703812F2996E4E069
:104380000C941335A4E0B0E0E8ECF1E20C94F834BE
:1043900040915A0350915B0360915C0370915D03FF
:1043A0002FB7F8948091FF0490910005A09101052A
:1043B000B09102052FBF841B950BA60BB70B11E024
:1043C00084369105A105B10570F10E944D166E5F0E
:1043D0007F4F8F4F9F4F69837A838B839C8380911C
:1043E000250190912601825A9C4F4091240150E072
:1043F0004530510510F044E050E0BE016F5F7F4F43
:104400000E94C33584E090E00E947334182F882303
:1044100051F00E94F30660935A0370935B038093FC
:104420005C0390935D03812F2496E3E00C94143594
:104430004F925F927F928F929F92AF92BF92CF9254
:10444000DF92EF92FF920F931F93CF93DF930F9220
:10445000CDB7DEB7C62E4A015901482E880F550840
:10446000C2010E947334782E882309F480C0C201EF
:1044700033E0880F991F3A95E1F7FC01EC5FFE4F9E
:10448000438150E04115510511F041E050E08C5F4F
:104490009E4FFC0164817581625A7C4FCE0101966A
:1044A0000E94C335F40140815181628173812FB72D
:1044B000F8948091FF0490910005A0910105B091BE
:1044C00002052FBF841B950BA60BB70B84369105F5
:1044D000A105B10540F4B701C8010E946F07998199
:1044E000891709F444C00C2C000CDD08C6010E9499
:1044F0007334782E811113C0712C872D0F90DF91AA
:10450000CF911F910F91FF90EF90DF90CF90BF90D0
:10451000AF909F908F907F905F904F900895C601CD
:1045200023E0880F991F2A95E1F7FC01EC5FFE4F0D
:10453000438150E0E416F50608F4A7018C5F9E4F16
:10454000FC0164817581625A7C4FC5010E94C335AC
:10455000B701C8010E946F0799818913CDCF0E94CE
:10456000F306F4016083718382839383C6CFA7012E
:10457000B801C5010E94C335C0CFA2E0B0E0E3ECB2
:10458000F2E20C94F23482E0E82EF12C05E613E01E
:104590009E012F5F3F4F46E553E063E082E00E94BB
:1045A0001822C82E882339F100E080E01DC0D09089
:1045B0007D03D00E2D2D30E0A90140565C4F7A01CD
:1045C000E1E0F0E0EC0FFD1FE00FF11D1081FA01BA
:1045D0009081191BB12E1B149CF0912F17FD90E0B8
:1045E000191B111118C00F5F90917C030917F8F285
:1045F00081110E9488168C2D2296E9E00C940E35CC
:10460000BA94F70180818F5F808360E08D2D0E94D6
:104610004A218C2DE0CF1F5FF7018081815080837C
:1046200061E08D2D0E944A218C2DDBCFA5E0B0E00A
:10463000ECE1F3E20C94F3346B0185E0E82EF12C0D
:104640000FE513E09E012F5F3F4F42E553E061E02D
:1046500080E00E941822882349F095E0FE013196FF
:10466000ADE4B3E001900D929A95E1F795E0EDE4A9
:10467000F3E0D60101900D929A95E1F72596E8E0D6
:104680000C940F35A8E0B0E0E8E4F3E20C94F934C0
:1046900066EE7EEF90E080E00E94183660E082E0F7
:1046A00090E00E94FA3560E083E090E00E94FA35E5
:1046B00010923E0310923D0360E074E184E090E0CC
:1046C0000E94183660E086E090E00E94FA356FEFB5
:1046D00087E090E00E94FA3540E050E0BA0188E0BF
:1046E00090E00E940C3660E084E290E00E94FA358F
:1046F00060E087E190E00E94FA3560E08CE090E0B5
:104700000E94FA3560E08DE090E00E94FA3519824F
:104710001A821B821C821D821E821F82188648E01C
:1047200050E068E170E0CE0101960E94EA3540E079
:1047300050E0BA0180E290E00E940C3640E050E088
:10474000BA018FE090E00E940C3640E050E0BA01E0
:1047500083E190E00E940C362896E2E00C94153537
:10476000CF93C82F80918B0382FB992790F99C17D8
:10477000F9F0C0FB82F980938B0360918A037091FA
:104780008B0384E090E00E94183682E00E94E511DD
:104790008091880580FF0CC01F92CF9387EE91E037
:1047A0009F938F930E945F050F900F900F900F9033
:1047B000CF910895B0E0A0E0E0EEF3E20C94F13484
:1047C0008C01FC018481882309F449C021E04081E7
:1047D00051816281738195810E944C12EC01813478
:1047E000FEE79F0709F440C070F480349E47D9F07B
:1047F000FE01E851FC47E730F10508F06DC0E055D7
:10480000F94C0C945435C2348EE7D807D9F1C3342F
:104810009EE7D90769F7F80185818823D9F183E0FC
:104820000E94FC110DC0F8018581882349F061E0E8
:1048300083E090E00E94FA3581E090E00E940C1243
:1048400080913103877059F0F8018581882339F010
:1048500080918B0382FF03C082E00E94E511CDB7F7
:10486000DEB7EAE00C940D35F8018581882331F03C
:1048700081E00E94FC110E94C311E2CF81E00E94FE
:10488000D311F9CFF8018581882311F082E0F1CFAF
:1048900082E0F5CF83E00E94D311D2CF26E241EE31
:1048A00061EEC8010E94ED20CBCF27E245EE65EE18
:1048B000F8CF26E241EE60EEF4CF27E245EE64EE5B
:1048C000F0CF26E241EE62EEECCF27E245EE66EE57
:1048D000E8CF28E241E0EBCFF8018581882309F495
:1048E000E0C310928605CE019057839708F0C3C3AA
:1048F00084E090E00E94E43590938B0380938A03D8
:10490000FE01E150F047E232F10520F4E954F94CA0
:104910000C94543580918A03816080938A0395C0FA
:1049200080918B03886080938B038FC080918A0372
:104930008260F3CF80918A038460EFCF80918A03F5
:104940008860EBCF80918B038160EDCF80918B03EA
:104950008260E9CF80918A038061DFCF80918A03F2
:104960008062DBCF80918A038064D7CF0E94461D8E
:1049700080918A038068D1CF80918A038C60CDCFEB
:1049800080918B038360CFCF80918A038E7FC5CFC8
:1049900080918B03877FC7CF80918A038D7FBDCFA6
:1049A00080918A038B7FB9CF80918A03877FB5CFAF
:1049B00080918B038E7FB7CF80918B038D7FB3CF98
:1049C00080918A038F7EA9CF80918A038F7DA5CFA6
:1049D00080918A038F7BA1CF0E94461D80918A031C
:1049E0008F779BCF80918A03837F97CF80918B03B2
:1049F0008C7F99CF80918A0382FB992790F921E0DF
:104A0000922790FB82F990FB83F987CF80918B03EB
:104A1000982F909591708E7F892B90FB81F983CF91
:104A200090918A03892F8F7B96FF806476CF0E94B6
:104A3000461D90918A03892F97FB87F980586DCF87
:104A400061E08EE090E00E94FA3560918A037091F7
:104A50008B0384E090E00E9418360E94461DF0CE41
:104A600060E0EFCF90918A03892F8F7E94FF806161
:104A700054CF90918A03892F8E7F90FF81604DCF14
:104A800090918B03892F877F93FF88604CCF85E3BC
:104A900012C380918905982F937021E092278C7F13
:104AA000892B8093890510924E0180918705816042
:104AB000809387058091880580FFC2CE1F929F93C7
:104AC0008DE591E09F938F938DE891E09F938F9375
:104AD0000E945F050F900F900F900F900F900F9016
:104AE000AFCE44EA52E16EEA72E10E948507A8CE99
:104AF0004EEA52E164EA72E1F8CF4DE153E167E238
:104B000073E1F3CF47E253E16DE173E1EECF43E0B0
:104B100053E160E173E1E9CF40E153E163E073E128
:104B2000E4CF49EE52E166EF72E1DFCF46EF52E1AA
:104B300069EE72E1DACF4FE453E16AE573E1D5CF74
:104B40004AE553E16FE473E1D0CF81E00E94711236
:104B500077CE85E0FBCF8DE0F9CF82E1F7CF909162
:104B60008805892F8E7F90FF81608093880580FF64
:104B700005C086ED91E00E94C60462CE84EC91E00F
:104B8000FACF6FEF7FEF90E080E00E9418360E942E
:104B9000242080918B0382FB882780F991E089276C
:104BA0000E94B023F8018581C081D181882309F456
:104BB0004AC0CE010E941411F82E682FCE010E9427
:104BC0008811BE018F2D0E94C60F0E94E50FD82FBD
:104BD000C92FA82EF801C580B680B2943FE0B32259
:104BE000809131038770F1F0EC2CCC20E1F0892F1B
:104BF000807F803451F080E28D0F883098F0B110C2
:104C000004C0892F807E803269F080918B0382FFFF
:104C100009C082E00E94E511809131038770EE2483
:104C2000E3948111E12CDC2ED2942FE0D222FBE020
:104C3000FD1508F46DC0ED2DF0E0E752F94C0C9431
:104C4000543580E0ADCFCE010E945511F82EB9CF7A
:104C50002C2F2F70F22EC07F19F0F29490EFF922D2
:104C6000CC20B9F0FF2069F080E28D0F883010F081
:104C7000A11009C080913C03F82AF0923C030E94E5
:104C8000D41C8D2F43C080913B03F82AF0923B0344
:104C9000F6CF8D2F0E944B20FF20D1F1D05ED8306F
:104CA00010F0A11004C08F2D0E94031106C0F094D3
:104CB00080913B03F822F0923B030E94D41C28C051
:104CC0003C2F3F70F32EC07FC03219F0F29480EF7A
:104CD000F822AA2059F081E0A81609F479C0CC2066
:104CE00009F485C0BB2009F447C0CBCF80918B036A
:104CF00082FD3EC0CC20B1F1FF2039F080913C0311
:104D0000F82AF0923C030E94D41C80E00E94882084
:104D10002D2D2850330B2430310510F40E943C1601
:104D2000EE20A9F08091310380FD11C0F8011582B9
:104D30008695869586950E94FC11C8010E94DA230B
:104D4000809131038695869586950E94D31120E047
:104D5000F8014081518162817381848195810E9433
:104D60004C127DCD80E00E944B20FF2089F29BCF2A
:104D7000CC20A1F0B11004C08F2D0E944120C8CFDB
:104D800091E0B912C5CF80913A039F2D9823F9166F
:104D900009F4BECFF82AF0923A03BACFB110B8CFD7
:104DA0008F2D0E943A2090913A038F2D892329F06C
:104DB0008F2D8095892380933A03809109039F2D3D
:104DC000982309F4A5CFF094F822F0920903A0CF1C
:104DD000CC2029F0E5E0EB1508F49ACFCDCFF4E034
:104DE000FB1508F495CF8F2D0E943A2091CFBB2060
:104DF000D1F329E3A21209C03FEF87EE93E03150CF
:104E000080409040E1F700C000008D2F0E944B20B1
:104E10007FCF8C2F86958695837069F0813009F05D
:104E200077CF8D2F9C2F9370C11002C080E090E04F
:104E30000E9425076DCF8D2F9C2F9370C11002C04B
:104E400080E090E00E944A0763CF6C2D8D2F0E9476
:104E50000E145ECF8C2F837009F03FC0C11058CF65
:104E60004D2F429546954770440F440F2D2F2F70BC
:104E700030E0042E02C0220F331F0A94E2F790E0C4
:104E800080E0D4FF09C08FE090E002C0880F991F36
:104E90004A95E2F780959095C695C695C370C23045
:104EA00099F078F440913D0350913E03C13039F0C0
:104EB000822B932B842395230E940C1229CF242B21
:104EC000352B822B932BF8CF822B932B20913D03F4
:104ED00030913E0382279327EFCF8695CC2011F0A7
:104EE0008C2F8170882309F413CF4D2F429546955E
:104EF0004770440F440F2D2F2F7030E0042E02C056
:104F0000220F331F0A94E2F790E080E0D4FF09C03B
:104F10008FE090E002C0880F991F4A95E2F78095D4
:104F20009095C695C695C370C23099F078F44091BB
:104F3000910550919205C13039F0822B932B842337
:104F400095230E94BE11E4CE242B352B822B932B6C
:104F5000F8CF822B932B20919105309192058227D7
:104F60009327EFCFCF70CC2029F08C2F0E94FC111B
:104F70008D2F03CF8D2F0E943A208C2F0E94D311AA
:104F8000C7CE8D2FE2EFAE1699F1EA1570F0F0EF73
:104F9000AF16D1F021EFA21691F0CC2009F45BC03E
:104FA000B1106FCE8C2F8F7127C033EFA31639F15C
:104FB00094EFA912F2CF80918B0382FD2EC08C2F2B
:104FC0008F71CC20D9F218C0CC2069F0E4E0EB1549
:104FD00008F49ECECF7181E090E002C0880F991F47
:104FE000CA95E2F7B8CFF5E0FB1508F491CEF2CF01
:104FF0008C2F8F71C110C2CF0E94FC1189CE90E01E
:1050000080E0CC2009F49DCFCF7181E090E002C018
:10501000880F991FCA95E2F794CFCC2089F0CF7101
:105020008C2F0E94FC1180918B0382FF07C028E027
:10503000C29FC00111248360809331038C2FDCCF89
:1050400081E00E94E51131E03B1508F061CE82E07D
:105050000E94E5115DCEBB2059F0893309F0D5CE11
:105060008FEF97EEE3E081509040E040E1F7CBCE48
:105070008C2F8F7183CFC631FCE7DF0751F580910C
:105080003C038A7A91E009F490E09093080369E286
:10509000811165E380E093E00E940B070E94D41C1D
:1050A000CFCBC6312CE7D20709F064C0809108034A
:1050B0008111EDCC89E2E2E0F3E028E033E0919168
:1050C000891303C0DF0111971C922E173F07B9F710
:1050D000E5CFC3303CE7D30709F453CD08F03AC01D
:1050E000C1309CE7D90709F452CD08F038CDC1157D
:1050F000DC4709F057CD0E94461DFFEF24E33CE05A
:10510000F15020403040E1F700C0000081E0809382
:10511000E00080E28093D8001092C9008FE19EE405
:105120000197F1F700C0000087E090EBDC0180936D
:10513000930590939405A0939505B093960588E107
:105140009CE00FB6F894A895809360000FBE9093F2
:105150006000FFCFCB352CE7D20709F472CDCC35F8
:105160003CE7D30709F415CDCA35DC4709F01ACD61
:1051700081E016CD80913C038272FE01E052F84737
:10518000E531F10508F00ECDEB51F94C0C94543596
:10519000CF93DF9380913003807F09F04DC08091E1
:1051A0002F03882309F448C0E091560550911D054E
:1051B000C0912B03D0912A0360912C0370912D0391
:1051C00047E05E17C9F18E2F90E0E49FF0011124B3
:1051D000E25EFA4F2481222391F1489FF001499F1A
:1051E000F00D1124DF01A25EBA4F11962C91119798
:1051F0002C1325C02C912D1322C015962C91159798
:1052000021111DC012962D913C91261B370B283C75
:105210003105A8F4809130038F7080618093300352
:10522000EC5DFA4F80818F70806180838AE293E029
:105230000E94DA230E940A11DF91CF910895FC01A8
:105240003196E770BECFA4E1B0E0E9E2F9E20C9458
:10525000EF348C0186E0F801DE011F9601900D927B
:105260008A95E1F7F8018481E5809AE2A92E93E01E
:10527000B92E90912E03911128C0882319F1EE20A8
:10528000F1F0C8010E941112F82E8823C1F087E0C6
:10529000F801D50101900D928A95E1F780912E03D6
:1052A000813031F480912A0390912B030E944811A0
:1052B0000E94C8288F2D6496ECE00C940B35C80131
:1052C0000E94DA23FF24F394F5CFD080C18082803E
:1052D0009380F0902F0320912C0330912D03A40193
:1052E000421B530BFF2009F4D9C0483C510508F07C
:1052F00092C08823F9F290912B0380913003282FDC
:10530000207F09F056C0C91214C090912A03D91207
:1053100010C0E11048C08F708061809330038AE232
:1053200093E00E94DA2380913003F8018683F12C08
:10533000C1CFE11038C06C2D8D2D0E9468056C2DF9
:105340008D2D0E946805E82E8111F1CFDF86C88A75
:105350008F8598890E944811292F22952F7024301B
:1053600058F49F70223088F0992399F0F8019681C3
:10537000907F79F4FE2C9ECF2A5F2F70223068F048
:10538000C8010E94DA23EF2CF5CF992311F088236E
:1053900089F3805E883070F3F3CF803F58F3815FEC
:1053A000833070F7E7CF80913003816080933003C2
:1053B000BECFC91207C090912A03D91203C0EE20B4
:1053C00009F48DC0C8010E941112882309F477CF17
:1053D000EE2009F474CF80913003803288F0209160
:1053E0002A0330912B03398728879B868A869091E0
:1053F0002E039C871D868E87CE0108960E94DA2395
:1054000087E0F801AAE2B3E001900D928A95E1F7F6
:105410000E94C82857CF90913003292F207F51F444
:105420008AE293E00E94DA2387E0F50111928A95DF
:10543000E9F77DCF882309F43DCF80912B038C11B0
:1054400010C080912A03D8120CC0E1100AC09683C4
:10545000C8010E94DA2387E0F50111928A95E9F7E5
:1054600029CFC8010E941112882309F428CFEE2009
:1054700009F425CF80913003803210F220912A0365
:1054800030912B033A8329839C828B8290912E0347
:105490009D831E828F83CE010196B0CF483C51057B
:1054A000D0F6882309F40ECFFE2CEE2009F407CFA6
:1054B00080912B038C1120C080912A03D8121CC02C
:1054C0008091300380FD0FC0982F907F61F086831C
:1054D000903F31F0982F907F905F8F70892B86835B
:1054E000C8010E94DA2387E0F801AAE2B3E0019044
:1054F0000D928A95E1F7DECEC8010E94111281114A
:105500007FCF80913003816080933003C8010E9477
:10551000DA23D0CEABE1B0E0E0E9FAE20C94F73464
:105520004E8B5F8B688F798F8A8F9B8F192F91118C
:1055300010923B031D8A86E0FE017696DE011F96DF
:1055400001900D928A95E1F70A8D002341F021E048
:105550004F85588969897A89C8010E944C120B8B42
:105560001C8B87E0FE013F96DE01189601900D929C
:105570008A95E1F7CE0108960E94232981110CC07B
:1055800087E0FE013896DE01119601900D928A9512
:10559000E1F78C8581110BC017E080915605909141
:1055A0001D05891331C06B96E4E00C9413352091EE
:1055B0001D0530E0C9010196877099274091560575
:1055C0004817190699F097E0929FD001939FB00D6C
:1055D0001124A25EBA4FFE01319601900D929A9568
:1055E000E1F780931D050E940A11D6CF0E94461D47
:1055F00010921D051092560587E0EAE2F3E0DF0104
:105600001D928A95E9F7C8CF819FC0011124825E5F
:105610009A4F0E942329882331F28091560590E009
:1056200001968770992780935605B7CFA6E0B0E022
:10563000ECE1FBE20C94F7340E94FF068C018091B0
:105640003F03909140038017910781F019821A82DD
:105650000E94FF06682F49815A81792F80E090E0EF
:105660000E948A2A1093400300933F032696E4E0A9
:105670000C9413351F920F920FB60F9211242F9393
:105680003F934F935F936F937F938F939F93AF93CA
:10569000BF93CF93DF93EF93FF93D091E900DF7037
:1056A0008091EC00C82FC17080FDC0E81092E90025
:1056B0008091F000877F8093F00078940E946D1DA8
:1056C0001092E9008091F00088608093F000CD2B6B
:1056D000CF70C093E900FF91EF91DF91CF91BF911F
:1056E000AF919F918F917F916F915F914F913F917A
:1056F0002F910F900FBE0F901F9018951F920F9231
:105700000FB60F9211242F933F934F935F936F9394
:105710007F938F939F93AF93BF93EF93FF9380916A
:10572000E10082FF15C08091E20082FF11C08091EC
:10573000E1008B7F8093E100209105052F5F822F90
:1057400062E30E942035992309F4C0C02093050527
:105750008091DA0080FF28C08091D80080FF24C0AB
:105760008091DA008E7F8093DA008091D90080FFEB
:10577000E3C080E189BD82E189BD09B400FEFDCFAF
:1057800081E08093130584EF97E00E94C604809126
:105790000605811109C00E9487050E942806809194
:1057A000E20084608093E2008091E10080FF1BC0F2
:1057B0008091E20080FF17C08091E2008E7F80938D
:1057C000E2008091E20080618093E2008091D80045
:1057D00080628093D80019BC85E0809313058CEF1C
:1057E00097E00E94C6048091E10084FF2FC0809161
:1057F000E20084FF2BC080E189BD82E189BD89B5CB
:10580000982F917080FFFBCF8091D8008F7D80937F
:10581000D8008091E1008F7E8093E1008091E200CA
:105820008F7E8093E2008091E20081608093E200AD
:1058300080911405882309F489C084E080931305BE
:1058400080E098E00E94C604809113058091E100F9
:1058500083FF2BC08091E20083FF27C08091E1008D
:10586000877F8093E10082E08093130510921405F6
:105870008091E1008E7F8093E1008091E2008E7F35
:105880008093E2008091E20080618093E20042E038
:1058900060E080E00E94F6058091F00088608093CF
:1058A000F00084E098E00E94C604FF91EF91BF9160
:1058B000AF919F918F917F916F915F914F913F91A8
:1058C0002F910F900FBE0F901F9018951092050505
:1058D00080910405882309F43BCF8091130584301F
:1058E000C1F49091E9009F702091EC00822F8170AB
:1058F00020FD80E8892B93E09093E9009091EB00E4
:1059000090FF04C09091EE0097FD08C08F708093C7
:10591000E900109204051CCF1092F1009091E8006C
:1059200095FDFACF9091E80090FFF0CF9091E800BC
:105930009E779093E800EACF19BC1092130588EF88
:1059400097E00E94C604109206052ECF8091E300D6
:1059500087FD93E09093130573CF78941F921FB641
:105960001F9211248F939F93AF93BF938091FF0455
:1059700090910005A0910105B09102050196A11D2D
:10598000B11D8093FF0490930005A0930105B0938F
:105990000205BF91AF919F918F911F901FBE1F90E5
:1059A00018951F921FB61F9211248F939F93AF9348
:1059B000BF938091FE04811113C08091FF049091E8
:1059C0000005A0910105B09102054196A11DB11DF0
:1059D0008093FF0490930005A0930105B093020506
:1059E000BF91AF919F918F911F901FBE1F901895EF
:1059F000CDB7DEB767970FB6F894DEBF0FBECDBF49
:105A000085B7806885BF85B7806885BF84B7877F85
:105A100084BF0FB6F894A895809160008861809348
:105A20006000109260000FBE80E890E00FB6F8941E
:105A300080936100909361000FBE86EE94E1909395
:105A4000FF028093FE020E9487050E942806809133
:105A5000E20084608093E2007894809113058823AB
:105A6000A1F01091E9001F709091EC00892F8170D6
:105A700090FD80E8182B1092E9008091E80083FDEA
:105A80000E946D1D1F701093E90082E084BD93E0B9
:105A900095BD9AEF97BD80936E0010927803109297
:105AA000790310927A0310927B0355985D988FE8E2
:105AB00091E00197F1F700C000000E94B30B8093C2
:105AC0003F010E94191681110E94873380913F0186
:105AD00092E0811190E09093A80382E0A82FA91B87
