:100000000C9475040C94AA310C94AD040C94AD04BA
:100010000C94AD040C94AD040C94AD040C94AD049C
:100020000C94AD040C94AD040C94DF290C949B2922
:100030000C94322B0C94AD040C94AD040C94AD04D0
:100040000C94AD040C94AD040C94AD040C94AD046C
:100050000C94AD040C940E2B0C94AD040C94AD04D4
:100060000C94AD040C94AD040C94AD040C94AD044C
:100070000C94AD040C94AD040C94AD040C94AD043C
:100080000C94AD040C94AD040C94AD040C94AD042C
:100090000C94AD040C94AD040C94AD040C94AD041C
:1000A0000C94AD040C94AD040C94AD040631FF091E
:1000B00074A1010975150026FF00952075088102BD
:1000C0000976150026FF00952075089102C00501EC
:1000D0000902A10185020901A100050919012908E8
:1000E00015002501950875018102050109300931C6
:1000F0001581257F95027508810609381581257FB0
:10010000950175088106050C0A38021581257F9531
:100110000175088106C0C005010980A10185031988
:10012000012AB700150126B700950175108100C09E
:10013000050C0901A101850419012AA00215012657
:10014000A002950175108100C005010906A10105F5
:100150000719E029E7150025019508750181029529
:1001600001750881010507190029FF150026FF0008
:100170009506750881000508190129059505750181
:100180009102950175039101C0726762206D6174DF
:1001900072697820746F67676C65205B25735D3AC0
:1001A000207267625F6D61747269785F636F6E66FB
:1001B00069672E656E61626C65203D2025750A00B9
:1001C00044454255473A2064697361626C65642E08
:1001D0000A0044454255473A20656E61626C656489
:1001E0002E0A004F6E6573686F743A2061637469FC
:1001F00076653A2025640A000A002530325820002E
:100200006B6579626F6172645F7265706F72743A68
:10021000200029001E001F002000210022002B00CA
:1002200014001A00080015001700E0000400160072
:10023000070009000A00E1001D001B00060019006C
:10024000050000000000E300417E280024522A003F
:10025000270026002500240023004C001300120074
:100260000C0018001C00340033000F000E000D00BD
:100270000B00E500380037003600100011000000C8
:100280000000E600427E2C00AC5235021E021F0226
:1002900020022102220235001E001F002000210042
:1002A00022004C00010050004F0052002F00057842
:1002B00001000100010051002F02000000000100B8
:1002C00001004C0026022A002702260225022402F1
:1002D00023023500270026002500240023003102D8
:1002E0002E025E005D005C00300001002D005B000E
:1002F0005A005900300200000000620001004C006A
:10030000270245003A003B003C003D003E002078BB
:100310001E021F022002210222022178AC00AB0043
:10032000A9004B002D02A800AD00AE00AA004E00AF
:100330002D00000000000100010001003900440010
:1003400043004200410040003F00350027022602E2
:1003500025022402230231002778257823784A00D9
:100360002E0001002878267824784D002E02000007
:1003700000000100010001000100270227022E00F9
:1003800037022F023002010001002D003702010068
:100390000100010001000100010001000100010055
:1003A0000100010001000100010000000000010047
:1003B000010001000100007C0100010001000100BA
:1003C0000100010001000100010001000100010025
:1003D0000100010001000100010001000100010015
:1003E0000100010001000000000001000100010007
:1003F00001000100010001000100010001000100F5
:1004000001000100010001000100010001000100E4
:1004100001000100010001000100010001000100D4
:100420000100000000000100010001000100DF00E8
:10043000DE00DD0001000100010001000100D40028
:10044000D300D200D10001000100D000CD00CE00C9
:10045000CF0001000100DC00D900DA00DB00000061
:100460000000010001000100010054617267657421
:1004700020636F6E6E65637465640D0A005461726B
:1004800067657420646973636F6E6E656374656419
:100490002C207468726F74746C696E6720636F6E61
:1004A0006E656374696F6E20617474656D707473CA
:1004B0000D0A004661696C656420746F206578657B
:1004C000637574652025730A007267625F6D6174DD
:1004D0007269785F636F6E6669672E666C616773B9
:1004E000203D2025640A007267625F6D6174726945
:1004F000785F636F6E6669672E7370656564203D13
:100500002025640A007267625F6D61747269785FAA
:10051000636F6E6669672E6873762E76203D2025A0
:10052000640A007267625F6D61747269785F636FFD
:100530006E6669672E6873762E73203D2025640AE7
:10054000007267625F6D61747269785F636F6E6677
:1005500069672E6873762E68203D2025640A007234
:1005600067625F6D61747269785F636F6E666967F9
:100570002E6D6F6465203D2025640A007267625FFE
:100580006D61747269785F636F6E6669672E656E00
:1005900061626C65203D2025640A007267625F6DB0
:1005A00061747269785F636F6E6669672045455054
:1005B000524F4D0A007267625F6D61747269785FB5
:1005C000696E69745F6472697665727320726762BE
:1005D0005F6D61747269785F636F6E6669672E6DB7
:1005E0006F6465203D20302E205772697465206449
:1005F000656661756C742076616C75657320746FC7
:1006000020454550524F4D2E0A007267625F6D6162
:10061000747269785F696E69745F64726976657215
:1006200073206565636F6E666967206973206E6FFE
:100630007420656E61626C65642E0A005B735D00F8
:100640000A0025303862003A200025303258000A6E
:10065000722F632030313233343536370A000A00C6
:1006600025303258006C65645F7461736B3A20000A
:10067000290A002575002F002575005D28002564D6
:10068000002000256400200025640020002564006F
:100690007C0025303258006D6F7573656B6579206D
:1006A0005B62746E7C782079207620685D287265A4
:1006B000702F61636C293A205B0000010101010188
:1006C000010101010202020202020202020303030B
:1006D00003030303030404040404040405050505DB
:1006E000050606060606070707070708080808099B
:1006F0000909090A0A0A0B0B0B0C0C0C0D0D0D0E47
:100700000E0E0F0F0F1010111111121213131414DB
:10071000151516161717181819191A1A1B1B1C1D50
:100720001D1E1E1F202021222223242425262627A9
:100730002829292A2B2C2D2D2E2F303132323334DB
:1007400035363738393A3B3C3D3E3F4041424344E1
:1007500045464748494A4C4D4E4F505153545556C3
:1007600058595A5B5D5E5F616264656668696B6C6F
:100770006D6F7072737577787A7B7D7E80828385EA
:1007800087888A8C8E8F91939596989A9C9EA0A22A
:10079000A3A5A7A9ABADAFB1B3B5B7BABCBEC0C234
:1007A000C4C6C9CBCDCFD1D4D6D8DBDDDFE2E4E7F8
:1007B000E9EBEEF0F3F5F8FAFDFF6565636F6E6641
:1007C00069675F7570646174655F7267625F6D61B0
:1007D000747269785F64656661756C740A005B4366
:1007E0005D005B445D005B535D005B575D005B52E9
:1007F0005D0009025B00030100A0FA09040000018A
:1008000003010100092111010001224000070581B7
:10081000030800010904010001030000000921117F
:10082000010001227B000705820320000109040268
:10083000000203000000092111010001222200072B
:1008400005830320000107050303200001120100B6
:10085000020000000810CB567200070102000118C8
:1008600003490072006900730020005200650076A1
:10087000002E002000370000000E034B00650065CD
:1008800000620069006F00000004030904726762DF
:10089000206D61747269782073657420737065656A
:1008A00064205B25735D3A2025750A00726762201B
:1008B0006D61747269782073657420687376205B4B
:1008C00025735D3A2025752C25752C25750A007237
:1008D0006762206D6174726978206D6F6465205B5A
:1008E00025735D3A2025750A000011241FBECFEF45
:1008F000DAE0DEBFCDBF04B603FE18C080914D051F
:1009000090914E05A0914F05B09150058730904BC6
:10091000A740B04B59F410924D0510924E0510921D
:100920004F0510925005E0E0F8E3099512E0A0E0D1
:10093000B1E0EEEAF8E602C005900D92AA3FB107D9
:10094000D9F725E0AAEFB2E001C01D92AD34B2079D
:10095000E1F70E94592B0C94E0330C940000FF93B4
:10096000EF93E091FA02F091FB02309709F00995BC
:10097000EF91FF910895FC018591803011F0EFDF38
:10098000FBCF0895FF27E0E230E247FF0CC041951E
:1009900097FF09C0EDE26095709580959095611D77
:1009A000711D811D911D27FF02C0219530E350E28A
:1009B000AA27660F771F881F991FAA1FA41710F078
:1009C000A41B63955A95A9F7AA3008F0A95FA05D0A
:1009D000AF93F395611571058105910541F7ED32EE
:1009E00011F4EF93F395F21718F43F93F395FBCFBF
:1009F0008F91B5DFFA95E1F70895E991F991859125
:100A0000803021F0853219F0AADFF9CF089520E077
:100A1000E89455915532C1F3503311F468945591CF
:100A20005A3348F4505390F3220F022E220F220F14
:100A3000200D250FF4CF0EF421958991999153360D
:100A400019F3533729F1533559F1BC0188279927F8
:100A5000E8945C3621F489919991689455915436C3
:100A600039F446EF7EF077FF0DC08FEF9FEF0AC09D
:100A700055374AE039F0583540E121F0523642E02E
:100A800009F00895FF93EF937DDFEF91FF91B7CFCA
:100A9000FF93EF93FC0181918030B9F360DFFBCFCE
:100AA000FF93EF9368DFF1CFDF93CF93CDB7DEB73E
:100AB0002596A3DFCF91DF910895482F209110054F
:100AC0009091D70457E0291302C080E0089530E0E8
:100AD000529FF001539FF00D1124E852FB4F81818A
:100AE000681306C08081481303C085818111EECF51
:100AF0002F5F3F4F2770E7CFE8EDF0E080818E7FDA
:100B000080831092E2001092DA001092E100A0EED1
:100B1000B0E08C9181608C9380818F77808319BC49
:100B2000A7EDB0E08C918E7F8C9380818F7E808347
:100B30001092C00408952091E4003091E50095E6FC
:100B4000A9012091EC00822F817020FF06C08091C6
:100B5000E80080FF06C080E008952091E80022FDB3
:100B60001AC08091CD04882389F0853089F0809166
:100B7000EB0085FD0FC02091E4003091E5004217A5
:100B80005307F9F29150E1F684E0089582E0089568
:100B900083E0089581E008958091CF0487FF13C01A
:100BA0008091E80082FF06C08091E8008B778093F7
:100BB000E80004C08091CD048111F2CF08958091A6
:100BC000CD048823D9F38091E80080FFF8CF80918D
:100BD000E8008E77ECCF982F9093E900242F762FA2
:100BE00050E0891731F07091EC002091ED005091A8
:100BF000F00021FD07C09F5F973071F78093E900F7
:100C000081E008953091EB003E7F3093EB0030910E
:100C1000ED003D7F3093ED003091EB00316030937B
:100C2000EB007093EC002093ED005093F0002091C6
:100C3000EE0027FDE0CF80E00895B0E0A0E0E3E221
:100C4000F6E00C94D032C8EDD0E088818F7E8883A6
:100C5000E7EDF0E080818160808384E082BF81E005
:100C60008093C00488818E7F888302EE10E0F801B3
:100C700010821092DA0081EEC82ED12CF60110827B
:100C800088818F77888388818068888388818F7D39
:100C9000888319BC1092CD041092CE041092CC041B
:100CA0001092CB0490EEE92EF12CF70180818B7F1E
:100CB000808388818160888342E060E080E00E94D8
:100CC000EB05F60180818E7F8083F8018081816051
:100CD0008083808188608083F70180818E7F80831C
:100CE000888180618883CDB7DEB7E8E00C94EC3270
:100CF000FC018091D5049091D60486179707A0F047
:100D00006115710529F49091E8009E779093E800B1
:100D100090E06115710551F4911108C08091E800CF
:100D200082FF34C080E00895BC01F2CF8091CD04F1
:100D30008823C1F18530C1F18091E80083FD30C086
:100D40008091E80082FDEACF8091E80080FFE1CF4A
:100D50008091F3002091F200382F6115710519F090
:100D60002830310558F091E02830310509F090E045
:100D70002091E8002E772093E800CBCF81918093DB
:100D8000F100615071092F5F3F4FE7CF8091CD0493
:100D9000882341F0853041F08091E80083FFBECF89
:100DA00081E0089582E0089583E008958091C2046F
:100DB00008959C014FB7F8948091B9049091BA04BA
:100DC000A091BB04B091BC044FBF821B930B08954C
:100DD0002FB7F8946091B9047091BA048091BB0464
:100DE0009091BC042FBF08952FB7F8948091B90457
:100DF0009091BA04A091BB04B091BC042FBF089598
:100E00009C01FC0132969FEF80E04191461751F022
:100E10009F3F19F4411101C0982F8F5F8630A9F7C9
:100E20009F3F09F40895290F311D97FD3A95F90167
:100E300062830895A3E0B0E0E0E2F7E00C94D632DC
:100E40002091B6043091B70428173907A1F0909388
:100E5000B7048093B604E091B404F091B5043097E0
:100E600051F024E029839B838A830680F781E02D5B
:100E7000CE01019609952396E2E00C94F232A3E0AC
:100E8000B0E0E5E4F7E00C94D6322091B204309162
:100E9000B30428173907A1F09093B3048093B204E8
:100EA000E091B404F091B504309751F023E0298328
:100EB0009B838A830680F781E02DCE0101960995F8
:100EC0002396E2E00C94F232FC01680F791F8FEF59
:100ED00091E32191822728E030E087FF09C0880F45
:100EE000892721503109C9F7E617F70791F70895C7
:100EF000880FF7CFFA01811101C0FB010995089510
:100F000080934501809143058370809344010E9442
:100F1000A91783E080934A010895EF92FF920F93FF
:100F20009701201B31092F3F310519F010F02FEFE9
:100F300030E0322F3095482F430F08F44FEF842FC5
:100F4000620F0F91FF90EF900895EF92FF920F9331
:100F5000972F093438F4B701601B71096F3F710591
:100F600019F010F06FEF70E0485F5F4F41315105AD
:100F700040F0A901485F5F4F4131510510F06FEF1C
:100F800070E06095482F460F08F44FEF842F37FF2D
:100F900002C02D5F3F4F3595279535952795609178
:100FA0004405620F792F0F91FF90EF900895EF9213
:100FB000FF920F931F930E0D1F2D111DF90137FF87
:100FC00003C0F195E195F10924E0EE0FFF1F2A958A
:100FD000E1F7EF3FF10519F014F0EFEFF0E09A01BF
:100FE00057FF03C031952195310994E0220F331F3B
:100FF0009A95E1F72E173F070CF4F901E00FF11F66
:10100000EF3FF10519F010F0EFEFF0E0E095282F39
:101010003E2F230F08F42FEF822F1F910F91FF9087
:10102000EF900895EF92FF920F93970195E0099F3B
:10103000200D311D11242F3F310519F010F02FEF35
:1010400030E02095382F320F08F43FEF832F0F91B7
:10105000FF90EF90089522E8241B08F420E0620F2F
:1010600008954095282F429F412D1124842F0895E3
:101070000F931F9310E0F801EE0FFF1FE35DFD4F8C
:101080009081905797FD9195000F111FF801EF5037
:10109000FE4F05AD0052110B2003F001219FF00D12
:1010A000112408E310E0091B110997FD1395400373
:1010B0009001419F300D1124E20FF31F9F01220F79
:1010C000331F2E0F3F1F37FF02C021583F4F220F03
:1010D000232F221F330B620F1F910F9108950F933F
:1010E0001F93522F10E0F801EE0FFF1FEF50FE4F3D
:1010F000A5ADA052BB0B9D015203F001539FF00D13
:101100001124000F111FD801A35DBD4F0C91005792
:10111000110B40039001419F300D11242E0F3F1FF2
:1011200037FF02C0215C3F4F96E0359527959A9591
:10113000E1F7620F1F910F9108950F931F93522FA4
:1011400010E0F801EE0FFF1FEF50FE4FA5ADA052CB
:10115000BB0B9D015203F001539FF00D1124000FB2
:10116000111FD801A35DBD4F0C910057110B400317
:101170009001419F300D11242E0F3F1F37FF02C0F9
:1011800021583F4F220F232F221F330B620F1F9135
:101190000F910895EF920F93972F23E0029FB001D4
:1011A0001124759567956E0D792F0F91EF90089525
:1011B000322F50E0FA01EE0FFF1FEF50FE4F95ADBA
:1011C000905297FD9195440F551FFA01E35DFD4F35
:1011D0002081231B330B290F311D97FD3A95620F98
:1011E0000895E42FF0E0EE0FFF1FEF50FE4F65ADC6
:1011F000621B0895E42FF0E0EE0FFF1FE35DFD4F4B
:101200006081621B0895622F0895E42FF0E0EE0FD5
:10121000FF1FE35DFD4F408134EE439F412D1124BC
:10122000E82FF0E050E0445E5F4FDA01A21BB10905
:101230009D01B7FF03C031952195310993E0220F3D
:10124000331F9A95E1F7AF01421B530B9A0157FDEB
:1012500020E0582F259F212D1124822F0895E42F5F
:10126000F0E0EE0FFF1FE35DFD4F408134EE439F42
:10127000412D1124E72FF0E050E0445E5F4FDA018A
:10128000A21BB1099D01B7FF03C03195219531091A
:1012900093E0220F331F9A95E1F7AF01421B530BE6
:1012A0009A0157FD20E0279F212D1124722F0895C8
:1012B0000E949C0B0895FF920F931F93CF93DF938F
:1012C000182F062FF42ED0E0C0E02F2D402F612FD5
:1012D000CE010E9458092196C434D105B1F7CDB78B
:1012E000DEB7E5E00C94EF32FC019B01009729F496
:1012F00080E077FF2BC080E80895AC0197FF04C021
:1013000044275527481B590BB901640F751F37FD3A
:1013100010C0241B350BC901A5E0880F991FAA95A1
:10132000E1F70E941D3380E2861BF7FF0FC0819515
:101330000895CB0165E0880F991F6A95E1F7BA011E
:10134000621B730B0E941D3380E6EECF0895EF926F
:101350000F93CF93DF93D72FC82FC9010E19BA016E
:101360000E947409602F681B7D2F8C2FDF91CF9115
:101370000F91EF9008950F93CF93DF93D72FC82F3E
:10138000C901BA010E947409682F600F7D2F8C2F4C
:10139000DF91CF910F910895EF920F931F93CF9309
:1013A000DF93D62FC72F182FC9010E19010FBA01CD
:1013B0000E947409081B202F219F212D1124822FA8
:1013C0006D2F7C2FDF91CF911F910F91EF9008959A
:1013D000EF920F931F93CF93DF93D62F172FC82F22
:1013E000C9010E19070FBA010E947409702F781BEA
:1013F000719F712D11246D2F8C2FDF91CF911F9133
:101400000F91EF9008950F931F93CF93DF93D62FF3
:10141000C72F182FC901212F201B022FBA010E94AC
:101420007409982F990F990F891B800F282F219FDE
:10143000212D1124822F6D2F7C2FDF91CF911F91B1
:101440000F9108950F931F93CF93DF93D62F172FEC
:10145000C82FC901272F201B022FBA010E9474092F
:10146000982F990F990F782F791B700F719F712DFD
:1014700011246D2F8C2FDF91CF911F910F91089523
:10148000E82F86FDE0952E2F2F7086FD2F5FE695C5
:10149000E695E695E670F0E0E652FE4F9181929F68
:1014A000902D212D112492959F702295207F922BB3
:1014B0002081920F87FD919580E8890F0895AC01F6
:1014C0008230910508F408959FEF413E8EE1580760
:1014D00040F49A0195E0369527959A95E1F798E0C2
:1014E000920F61E0E62FE90FFF27FF1F9F0135955F
:1014F0002795822F229FF001239FF00DF00D1124DC
:101500004E175F0738F49FEF920F961758F78FEF3B
:10151000860F08952F3FE9F361E0620FF6CF0F9336
:10152000CF93DF93D72FC82F47FD419588E390E0F5
:10153000841B910947FD9395889FB001899F700D89
:10154000700D1124229FC001239F900D900D112436
:10155000860F971F0E945F0A982F990F890F682F97
:10156000600F7D2F8C2FDF91CF910F91089530E088
:1015700020E0869F212D969F200D311D1124C90149
:101580000895AF92BF92CF92DF92FF920F931F9375
:10159000CF93DF93362F472FE82FF0E0E654F94F33
:1015A00071110FC0E4918E2F2E2F6E2F722FDF91AD
:1015B000CF911F910F91FF90DF90CF90BF90AF9090
:1015C0000895C72FD0E02491F22E022F10E056E0AC
:1015D000659FC0011124EFEFF0E0BF010E940933C5
:1015E000832F90E0880F991F35E5369FD001379FF4
:1015F000B00D11248A1B9B0B982F990F980F6F0128
:10160000CC1ADD0AC09ED001C19EB00DD09EB00D97
:1016100011248B2F499FA0011124452F55276F01BD
:10162000C41AD50AC09EA001C19E500DD09E500D77
:1016300011245F01A91AB108AC9E6001AD9ED00CC7
:10164000BC9ED00C1124CD2CDD24EC19FD09E09FAB
:10165000E001E19FD00DF09FD00D1124ED2F6230FD
:101660007105A1F050F46115710509F49ECF613048
:10167000710581F0EB2F852F98CF6430710569F0EB
:1016800080F06630710509F490CFF4CFE22F2B2F54
:101690008D2F8BCFE22F252F88CFEB2F822F2D2F51
:1016A00084CF2B2F8F2DE52F80CF8091AC0380FD31
:1016B00016C081FD16C082FD16C08091AB03882341
:1016C000A1F0883280F428E0829FC001112468E2F2
:1016D00070E00E941D33862F672B39F0089582E059
:1016E000089584E0089588E0089581E00895809148
:1016F000AC0380FD14C081FD14C082FD16C0809132
:10170000AD03882381F08E3180F420E5829FC001F3
:1017100011246EE170E00E941D33862F089584E14C
:10172000089588E2089588E0089580E5089589B1D4
:1017300085FB882780F90895FF920F931F93CF931D
:10174000DF93EC01F62E042F122F0E94970B8111CC
:101750000FC0C232D1057CF0A297FE01EE0FFF1F31
:10176000EC0FFD1FEA51FC4FF1820083128303C08E
:10177000C232D10594F3CDB7DEB7E5E00C94EF3279
:10178000CF93C82F0E94970B882329F081E0C232A3
:1017900028F080E003C081E0C434D8F7CF910895E9
:1017A000A8E0B0E0E6EDFBE00C94C632282E7C8386
:1017B0006B83209147018EE0289F802D11248D831B
:1017C000825F8983853410F034E439830E94970B5B
:1017D000882329F08981833210F092E299830E9454
:1017E000970B811105C0ED81E23210F4F2E2FD8326
:1017F000209115052A839D81892F90E098878F83FA
:10180000880F991FFC01EF50FE4F6F01822D90E071
:101810009C012F5F3F4F3E832D8389819F819817C5
:1018200030F00E94C00B2896E2E10C94E232EF8186
:10183000F885EB54FD4F8081909148018923F9F0A0
:1018400030904405409045058D819E818B5E9A4F76
:101850003C01522C10E0FA815F16D8F02091460529
:10186000129F112D1124632D742D812F0E94C10A06
:10187000462F282F672F8F8198850E9458092F8126
:1018800038852F5F3F4F38872F8332E0C30ED11C3E
:10189000C4CFF30181913F01F601A4ACA81ABB08A3
:1018A00085ACF3018781881A9908AA9C9001AB9CAA
:1018B000300D300D1124889CC001899C900D900D35
:1018C0001124820F931F0E945F0A082F6091470521
:1018D00021E0620F08F46FEFF301EE0FFF1FE551F7
:1018E000F540858996890E94B70A7C019401A5017B
:1018F000632D742D812FEB81FC810995362E472EA7
:101900005394182FA8CFB0E0A0E0E9E8FCE00C94D5
:10191000D0327C01C09147018EE0C89FC02D1124B8
:101920001EE01C0F153408F014E40E94970B882366
:1019300019F0133208F012E20E94970B811103C0D4
:10194000C23208F4C2E22091470531E0230F08F4C7
:101950002FEF30E050E040E06FEF7FEF80E090E06D
:101960000E9431336901D0E001E02C2FC11740F013
:10197000812F0E94C00BCDB7DEB7E8E00C94EC32AB
:10198000FE01EB54FD4F808190914801892309F1BC
:10199000409115054150042E000C550B47FF1BC00C
:1019A000C60160914705600F08F46FEF0E94B70A07
:1019B000AC01609144057091450580914605F701A1
:1019C00009950E94C10A462F282F672FCE010E9439
:1019D00058092196CACFFA01EB5EFA4F818982132A
:1019E0000AC0FA01EE0FFF1FEB5EFA4F818D928D58
:1019F0008C159D05B0F241505109D0CFB0E0A0E068
:101A0000E4E0FDE00C94CE326C01C09147018EE021
:101A1000C89FC02D11241EE01C0F153408F014E4DB
:101A20000E94970B882319F0133208F012E20E94EB
:101A3000970B811103C0C23208F4C2E260914705DE
:101A40006695669580911105909112050E94B70ADE
:101A5000F82E80E48F0D0E94400A90E8B92EB80E4F
:101A60008F2D0E94400A20E8A22EA80ED0E0C117B8
:101A700040F0812F0E94C00BCDB7DEB7EAE00C9496
:101A8000EA32FE01EB54FD4F808190914801892399
:101A9000A1F0609144057091450580914605EF2CB9
:101AA0000C2F2A2D4B2DF60109950E94C10A462FB5
:101AB000282F672FCE010E9458092196D8CFB0E079
:101AC000A0E0E5E6FDE00C94CA325C01C09147015C
:101AD0008EE0C89FC02D11241EE01C0F153408F0A5
:101AE00014E40E94970B882319F0133208F012E2D5
:101AF0000E94970B811103C0C23208F4C2E26091C8
:101B00004705669580911105909112050E94B70ACC
:101B1000F82ED0E0CE01880F991F9C012F503E4F28
:101B20006901C11740F0812F0E94C00BCDB7DEB70D
:101B3000EEE00C94E632FE01EB54FD4F8081909173
:101B40004801892379F1F60184AD282F2057330B02
:101B5000490185ADE82FE052FF0B3F01889C9001C1
:101B6000899C300D300D1124EE9FC001EF9F900D28
:101B7000900D1124820F931F0E945F0A082F60911D
:101B800044057091450580914605EF2C9301A40111
:101B9000F50109950E94C10A462F282F672FCE0113
:101BA0000E945809F2E0CF0ED11C2196BACFB0E0C6
:101BB000A0E0EDEDFDE00C94CF326C01C091470147
:101BC0008EE0C89FC02D11241EE01C0F153408F0B4
:101BD00014E40E94970B882319F0133208F012E2E4
:101BE0000E94970B811103C0C23208F4C2E26091D7
:101BF0004705669580911105909112050E94B70ADC
:101C0000B82ED0E0CE01880F991F9C012F503E4F77
:101C10007901C11740F0812F0E94C00BCDB7DEB70C
:101C2000E9E00C94EB32FE01EB54FD4F8081909182
:101C300048018923C1F0F70125AD2052330B44AD93
:101C40004057550B609144057091450580914605BC
:101C50000B2DF60109950E94C10A462F282F672FE8
:101C6000CE010E945809F2E0EF0EF11C2196D1CF6F
:101C7000EF92FF920F931F93CF93DF937C01C0915C
:101C800047018EE0C89FC02D11241EE01C0F1534A3
:101C900008F014E40E94970B882319F0133208F01F
:101CA00012E20E94970B811103C0C23208F4C2E213
:101CB000609147056695669521E0620F08F46FEF25
:101CC00080911105909112050E94B70A082FD0E06B
:101CD000C11740F0812F0E94C00BCDB7DEB7E6E000
:101CE0000C94EE32FE01EB54FD4F8081909148013F
:101CF000892391F0609144057091450580914605D6
:101D0000202F4C2FF70109950E94C10A462F282F3A
:101D1000672FCE010E9458092196DACFB0E0A0E0EB
:101D2000E4E9FEE00C94CE32182F80914501811336
:101D300023C09091430593702091440130E081E0ED
:101D40009217130609F480E0817080934901809115
:101D5000480590914801981739F08093480140E078
:101D600060E080E00E945B09113288F4E12FF0E02E
:101D7000EE51FC4C0C94503381E0E6CF8091490148
:101D8000882389F140E060E080E00E945B0980E008
:101D90002AC0C09147018EE0C89FC02D11240EE0DB
:101DA0000C0F053408F004E40E94970B882319F007
:101DB000033208F002E20E94970B811103C0C23285
:101DC00008F4C2E260914405709145058091460592
:101DD0000E94C10AF62EE72ED82ED0E0C017D8F008
:101DE000802F0E94C00B909147019F5F9093470105
:101DF00081110CC082E080934A01809149018111D8
:101E000005C0111103C083E080934A01CDB7DEB74E
:101E1000EAE00C94EA32FE01EB54FD4F8081909190
:101E20004801892331F02D2D4F2D6E2DCE010E94BA
:101E300058092196D3CFC09147018EE0C89FC02D8D
:101E400011240EE00C0F053408F004E40E94970BF7
:101E5000882319F0033208F002E20E94970B8111E7
:101E600003C0C23208F4C2E2E0904505F090460596
:101E7000D09144056D2F7E2D8F2D0E94C10AD62E44
:101E8000C72EB82E609147056D0F7E2D8F2D0E94B5
:101E9000C10AF62EE72EA82ED0E0C01708F0A0CF7A
:101EA000FE01EB54FD4F908180914801892359F048
:101EB0002A2D4F2D6E2D90FD03C02B2D4D2D6C2DF9
:101EC000CE010E9458092196E8CFC09147018EE0CB
:101ED000C89FC02D11240EE00C0F053408F004E457
:101EE0000E94970B882319F0033208F002E20E9447
:101EF000970B811103C0C23208F4C2E2E09045059D
:101F0000D09046052091470550E4F52E3F2D329F95
:101F1000312D1124F32ED0E0C01708F061CFFE015F
:101F2000EB54FD4F8081909148018923B9F0FE0167
:101F3000EE0FFF1FEF50FE4F85AD82958F706091C1
:101F400044058F9D600D11247E2D8D2D0E94C10AA8
:101F5000462F282F672FCE010E9458092196DCCFEB
:101F6000C09147018EE0C89FC02D11240EE00C0FD8
:101F7000053408F004E40E94970B882319F003321B
:101F800008F002E20E94970B811103C0C23208F4EC
:101F9000C2E2E0904505D09046052091470530E427
:101FA000F32E3F2D329F312D1124F32ED0E0C01798
:101FB00008F016CFFE01EB54FD4F8081909148014F
:101FC0008923D9F0FE01EE0FFF1FEF50FE4F64ADE5
:101FD000F69EB001112495E0759567959A95E1F705
:101FE00080914405680F7E2D8D2D0E94C10A462FD9
:101FF000282F672FCE010E9458092196D8CFC09173
:1020000047018EE0C89FC02D11240EE00C0F05344F
:1020100008F004E40E94970B882319F0033208F0BB
:1020200002E20E94970B811103C0C23208F4C2E29F
:10203000F0904405D0914505E09046056091470534
:1020400066956695669580911105909112050E949E
:10205000B70A0E94400A805887FD8195880F282F73
:102060003E2D239F212D1124822F6F2D7D2F0E9425
:10207000C10AF62EE72ED82ED0E0C01708F0B0CE59
:10208000FE01EB54FD4F808190914801892331F08E
:102090002D2D4F2D6E2DCE010E9458092196EDCF8A
:1020A0008FE299E00E94380E9ECE85E099E0FACF4B
:1020B00082E29AE00E94D70D96CE83E09AE0FACFB2
:1020C00088EE99E00E945F0D8ECE8CEC99E0FACFFD
:1020D00083E099E0E7CF8AEF98E0E4CF81EF98E0E2
:1020E000E1CF88ED98E0DECF8AEC98E0EBCF8FE887
:1020F0009AE0E0CF8BEB99E0DDCF87EA99E0E2CF81
:102100008DE998E00E94FE0C6ECE8FE698E0FACF43
:1021100088E398E0F7CF81E398E00E94830C63CED8
:102120008BE298E0FACF8091150521E0382F321B21
:1021300008F430E0832F62E178E00E94D00B53CEA8
:1021400062E178E080E0F9CF8091150521E0382F39
:10215000321B08F430E0832F67ED77E0EECF67EDB8
:1021600077E0F0CF8091150521E0382F321B08F47D
:1021700030E0832F65EA77E0E0CF65EA77E0E2CFF1
:102180008091150521E0382F321B08F430E0832FB1
:102190006DE877E0D2CF6DE877E0D4CFF894E82F00
:1021A000E295EF70F0E031A1282F2F7081E090E0F0
:1021B00001C0880F2A95EAF7982F9095932391A351
:1021C00092A1892B82A3789408959091860392FF1F
:1021D00006C0282F28712830F9F4877F846093FF88
:1021E00006C0282F28712831F1F4877E8461209160
:1021F000870320FF06C0382F38713830D9F4877F25
:10220000816021FF06C0282F28712831D1F4877EF4
:10221000816194FD877E0895282F24712430F9F67A
:102220008B7F8860DCCF282F2471243101F78B7ECF
:102230008861DDCF382F3171313019F78E7F88609A
:10224000E0CF282F2171213121F78E7E8861E1CFE7
:1022500082389105B9F1B0F48133910509F47DC05C
:1022600048F48932910509F46DC08A32910509F468
:102270007BC008958533910509F45FC089339105CA
:1022800009F10895833E9105D9F138F4803E910516
:1022900029F1823E910579F10895863E9105D9F1A3
:1022A000873E910509F43EC0843E910541F5209199
:1022B000870321FF24C08091860384FD19C087EE27
:1022C00090E0089520918603237009F05AC0209170
:1022D000870323FF14C089E290E0089520918603CC
:1022E00020FD38C03091870330FF09C024FF43C070
:1022F00090E080E008952091860322FDF7CF0895B5
:102300002091860322FD3AC03091870330FD39C009
:1023100024FFF5CFEDCF2091860323FFF0CF24FDDE
:10232000E7CFCDCF2091860323FD2EC030918703C8
:1023300031FFEECF84EE90E008952091860325FFD3
:10234000DECFC9CF2091860325FD21C020918703D0
:1023500023FFD5CF89E390E0D2CF2091860326FFDB
:10236000CECF8AE290E008952091860326FFC7CF62
:1023700081E390E0089583EE90E0089582EE90E08E
:10238000089580EE90E0089586EE90E0089585E34C
:1023900090E00895972F7A30B8F46630A8F485302D
:1023A000B0F470E026E0929F600D711D1124FB01D6
:1023B0009CE3899FE00DF11D1124EE0FFF1FEE5EDF
:1023C000FD4F85919491089580E090E0089581E01B
:1023D000FCCF1F93CF93DF930E942811EC01C1150E
:1023E00080E5D807F0F5C11580E4D80708F09CC057
:1023F000C03ED10520F5CD3CD10508F082C0C83AD9
:10240000D10578F4C53AD10508F073C0C130D105C3
:1024100019F1209709F1C430D105F0F4D0E0C0E003
:102420001BC0C33CD105D0F7C85AD0E0CC0FDD1F8C
:10243000C257DE4F0990D881C02DD4640DC0C1159C
:1024400080E2D80708F0D1C0C11581E0D80708F0B4
:102450005AC0C83ED10510F7CE01DF91CF911F9130
:102460000895C03682E5D80718F5C03482E5D8074C
:1024700008F06BC0C03282E5D80708F05FC0C11514
:1024800082E5D80708F497C02C2F2695269580E280
:10249000289F900111248C2F8370C1E0D0E002C0EE
:1024A000CC0FDD1F8A95E2F7C22BD32BDD68D4CF8A
:1024B000C03A82E5D80760F4C03882E5D80708F44E
:1024C00059C0CF71D0E0DC2FCC27C46FD06AC4CF05
:1024D000C03C82E5D80708F462C0C03E82E5D80758
:1024E00008F09CCFDC2FCC27CC27DF71C06FD06ADF
:1024F000B3CFC55AD0E0C557DE4FC881D0E0D06415
:10250000ABCFD065A9CF8D2F0E94E510182FCE013B
:1025100099270E942811C12FD0E0DC2FCC27CC278F
:10252000DF71C82BD92B98CFCE0199270E94281193
:10253000CC27DF70C82BD92BD06A8ECFCF71D0E0DB
:10254000DC2FCC27C16FD06A87CF2C2F26952695FC
:10255000277080E2289F900111248C2F8370C1E0A6
:10256000D0E002C0CC0FDD1F8A95E2F7C22BD32B3F
:10257000DC6872CF2C2F26952695277080E2289F45
:10258000900111248C2F8370C1E0D0E002C0CC0FE9
:10259000DD1F8A95E2F7C22BD32BDA685DCF8C2F33
:1025A0008F710E94E510C82FD0E0DC2FCC27CC27FC
:1025B000DF71D06251CF8C2F8F710E94E51055E0F2
:1025C000D695C7955A95E1F7CF70D0E0DC2FCC2790
:1025D000282F30E084FF05C044E0220F331F4A95C6
:1025E000E1F7C22BD32BD06937CF8D2F8F710E948B
:1025F000E510182FCE0199270E942811C12FD0E095
:10260000DC2FCC27CC27DF71C82BD92BD2CF8095DC
:102610009091380398239093380308958091100582
:102620009091D704981301C008958F5F8770FACFF7
:10263000B0E0A0E0EEE1F3E10C94CF327C01009138
:102640004B0510914C058091390390913A03082B6A
:10265000192BCFE0D0E0CC24C394D12CBC2EC601E2
:102660000C2E02C0880F991F0A94E2F78023912351
:10267000892B49F4219790F7B12C8B2DCDB7DEB77C
:10268000E9E00C94EB32B7018C2F0E94CA110E9432
:10269000E911019779F3F1CFCF93DF93EC010E9419
:1026A0001813BE010E94CA110E94E911DF91CF9157
:1026B00008959A3078F5863068F5E82FF0E086E0E6
:1026C000989FE00DF11D11249E2F977083E0F695E1
:1026D000E7958A95E1F7EE0FFF1FEE0FFF1FEA5F08
:1026E000FC4F50E040E080E0219130E0092E02C034
:1026F000369527950A94E2F721703327042E01C0FE
:10270000220F0A94EAF7822B4F5F5F4F4430510546
:1027100059F7089580E008959A3098F5863088F545
:10272000E82FF0E086E0989FE00DF11D11248E2F38
:10273000877041E001C0440F8A95EAF783E0F6957F
:10274000E7958A95E1F7EE0FFF1FEE0FFF1FEA5F97
:10275000FC4F30E020E070E05191DF011197CB0198
:10276000022E02C0969587950A94E2F781708195B2
:102770008527842385278C932F5F3F4F2430310595
:1027800059F7089590934C0580934B0508958091D7
:102790004B0590914C059C0126703327263031055E
:1027A00021F488600E94C2130895877FFBCF21E047
:1027B00030E002C0220F331F8A95E2F72095309552
:1027C00080914B0590914C05822393230E94C21364
:1027D000089590912D038095892380932D03282FB0
:1027E000277069F4891759F09091870392FF07C009
:1027F0008695869586950E94D71310922D0308958D
:1028000021E030E002C0220F331F8A95E2F7809169
:102810004B0590914C05822B932B0E94C213089577
:1028200090933A03809339030895FC012481222375
:10283000C1F0808191810E944C1392959F709630D7
:1028400091F058F4925F9F70923058F4803F19F0E5
:1028500030F4883E30F481E008959A5FF4CF843FED
:10286000D1F380E00895883EB0F3813FD1F7F3CFF4
:10287000829590E09C01220F331F220F331F2C7C86
:1028800095958795959587958373282B30E0C90199
:10289000880F991F8A7A359527952575822B08957B
:1028A000A6E0B0E0E6E5F4E10C94D53249835A8322
:1028B00049815A819923A1F0222391F0CA010E94F3
:1028C0001813182F682F89819A810E948C136981AF
:1028D0007A81812F0E94CA112696E3E00C94F1328E
:1028E000CA010E945913182FF2CF9091430593709B
:1028F00031F1811125C094609093430510924A01F3
:10290000809141058160809341058091420580FF5F
:1029100016C080914305869586951F928F9389E511
:1029200091E09F938F938FEC98E09F938F930E94F9
:1029300054050F900F900F900F900F900F900895E7
:10294000813210F09068D8CF880F880F982BD4CFA1
:102950008091430586958695815009F480E20E9416
:102960007514089580914305869586958F5F813211
:1029700008F081E00E9475140895209143052370AA
:1029800059F18093440560934505493708F048E7BD
:1029900040934605209141052160209341052091F7
:1029A000420520FF19C01F924F931F926F939927E2
:1029B0009F938F9389E591E09F938F938CEA98E0A2
:1029C0009F938F930E9454058DB79EB70A960FB6BA
:1029D000F8949EBF0FBE8DBF0895E3E4F5E04381F8
:1029E00020E1421B08F440E08181628190E00E9476
:1029F000BD140895E3E4F5E0438120E1420F08F4BB
:102A00004FEF8181628190E00E94BD140895E3E45C
:102A1000F5E0628120E1621B08F460E0818143817E
:102A200090E00E94BD140895E3E4F5E0628120E1A6
:102A3000620F08F46FEF8181438190E00E94BD1422
:102A40000895E3E4F5E08181438162818850990B28
:102A50000E94BD140895E3E4F5E0818190E0438194
:102A6000628108960E94BD14089580934705909155
:102A700041059160909341059091420590FF12C0ED
:102A80001F928F9389E591E09F938F938DE898E053
:102A90009F938F930E9454050F900F900F900F906B
:102AA0000F900F9008958091470520E1382F321B39
:102AB00008F430E0832F0E94351508958091470572
:102AC00020E1382F320F08F43FEF832F0E94351595
:102AD00008958091420583FF7EC087E996E00E94B9
:102AE000BB048091B3031F928F9382E996E09F937A
:102AF0008F930E94540580E996E00E94BB04809168
:102B0000B403282F082E000C330B3F938F938DE8CE
:102B100096E09F938F930E9454058BE896E00E9465
:102B2000BB048091B503282F082E000C330B3F9374
:102B30008F9388E896E09F938F930E94540586E8D0
:102B400096E00E94BB048091B603282F082E000C4B
:102B5000330B3F938F9383E896E09F938F930E946C
:102B6000540581E896E00E94BB048091B703282FAA
:102B7000082E000C330B3F938F938EE796E09F93C4
:102B80008F930E9454058BE796E00E94BB048091CE
:102B9000AD031F928F9388E796E09F938F930E94D7
:102BA000540586E796E00E94BB048091AC031F9217
:102BB0008F9383E796E09F938F930E94540580E75D
:102BC00096E00E94BB048DB79EB74C960FB6F89462
:102BD0009EBF0FBE8DBF0E94F4069C019091B4036E
:102BE0008091B503982B21F03093B1032093B0036B
:102BF0009091B6038091B703982B21F03093AF03E7
:102C00002093AE03E091B404F091B504309749F0FD
:102C100082E08093B2030480F581E02D82EB93E0A3
:102C200009950895662309F45DC08D3C41F40E9426
:102C3000770B81958093B5030E94691508958E3CAA
:102C400019F40E94770BF6CF8F3C31F40E94770B7A
:102C500081958093B403F0CF803D19F40E94770BE7
:102C6000F8CF893D29F40E94550B8093B603E4CF39
:102C70008A3D21F40E94550B8195F7CF8B3D31F4AD
:102C80000E94550B81958093B703D6CF8C3D19F4E4
:102C90000E94550BF8CF9FE2980F983070F4815D39
:102CA000990B21E030E001C0220F8A95EAF780916C
:102CB000B303822B8093B303BFCF8D3D31F480915A
:102CC000AC0381608093AC03B7CF8E3D21F480913B
:102CD000AC038260F7CF8F3D09F0AECF8091AC039B
:102CE0008460F0CF4091B4038D3C59F48091B503DA
:102CF00087FF0DC01092B50341110BC01092AD03B8
:102D000008C08E3C81F48091B50318169CF34423CF
:102D100081F08091B6039091B703892B09F08CCF95
:102D20001092AB0389CF8F3C49F447FFF0CF10924C
:102D3000B4038091B5038111ECCFE0CF803D19F44D
:102D40001416ACF3E4CF9091B603893D29F419161B
:102D5000F4F61092B603DBCF8A3D19F497FFD7CF74
:102D6000F8CF9091B7038B3D29F497FFD0CF109205
:102D7000B703CDCF8C3D19F41916CCF3C8CF9FE221
:102D8000980F983090F4815D990B21E030E0B90103
:102D900002C0660F771F8A95E2F7CB01809590916C
:102DA000B30389238093B303B2CF8D3D31F4809177
:102DB000AC038E7F8093AC03AACF8E3D21F480912B
:102DC000AC038D7FF7CF8F3D09F0A1CF8091AC038D
:102DD0008B7FF0CF9FB7F8941092BE049FBF909165
:102DE000CD04943009F048C02091E9002F70309153
:102DF000EC00932F917030FD90E8922B23E020930C
:102E0000E9002091EB0020FF34C02091EE0027FF65
:102E100030C02091BD04222321F02091E80025FF3D
:102E200028C01092BD0426E03091E80035FF14C0A0
:102E30008093F1008091E80085FD27C08091E80033
:102E400080FFFCCF8091E8008E778093E8009F7030
:102E50009093E90080E008953091CD04343049F436
:102E60003091EB0035FD05C0215041F481E08093A5
:102E7000BD049F709093E9008FEF0895EFE9FFE0A4
:102E80003197F1F700C00000CFCF8FB7F89421E061
:102E90002093BE048FBFDBCF0F931F93CF93DF939D
:102EA0008B01EA019091CD04943061F58093E900A3
:102EB0008FEF9091E800815095FD06C095ED9A95B1
:102EC000F1F700008111F5CF8091E80085FF1AC06D
:102ED0000E949B05811111C08091E80085FD06C00C
:102EE0008091E8008E778093E800F2CFF80181911D
:102EF0008F018093F100219779F78091E8008E7718
:102F00008093E800DF91CF911F910F91089543E0E6
:102F100050E0BC0182E00E944C17089546E050E06A
:102F2000BC0182E00E944C170895CF93DF93EC011F
:102F300048E050E0BC0181E00E944C1788E0FE01AF
:102F4000A3ECB4E001900D928A95E1F7DF91CF9167
:102F500008956E9A3EB13F7B2EB120644FB7F8942E
:102F600086EE93E0FC015191CF0168E02EB900009C
:102F700000C057FF3EB9550F000000C000C000C0A0
:102F80003EB900C06A9591F7F4E0823B9F0751F784
:102F90004FBF8FE594E00197F1F700C0000008955E
:102FA000B0E0A0E0E6EDF7E10C94CB327C015B01F0
:102FB000842E752E69018091480301E010E08A306B
:102FC00010F40AE010E0C1E0D0E0B501C701F6015D
:102FD0000995982E811114C021960C171D07B4F481
:102FE0008091420580FF0CC07F928F9283EB94E02A
:102FF0009F938F930E9454050F900F900F900F9006
:10300000892DCDB7DEB7EDE00C94E732CC9F90016F
:10301000CD9F300D300D112490E080E045E34A95BE
:10302000F1F70000019628173907C1F7CECF80913C
:103030004703811110C08091D80080618093D8002F
:103040008AE18A95F1F700C08091D90080FF0AC01B
:1030500081E08093470381E090914703913009F02C
:1030600080E0089582E0809347030E947C051092DF
:10307000CD04F1CF0E941718882359F0E091B404D1
:10308000F091B504309729F00190F081E02D099579
:10309000089580E008950F931F930E9417188823C6
:1030A00029F00E94E8061F910F9108950E94E806FA
:1030B000009174031091750320917603309177038A
:1030C000600F711F821F931FEECFCF92DF92EF929E
:1030D000FF926B017C010E9417188823A1F02FB783
:1030E000F8946091B9047091BA048091BB049091F6
:1030F000BC042FBF6C197D098E099F09FF90EF90CA
:10310000DF90CF9008950E944B18F4CF0E944B1887
:1031100008954F925F926F927F928F929F92AF929B
:10312000BF92CF92DF92EF92FF92CF936091E10333
:103130007091E2038091E3039091E4030E9465188B
:103140006B017C010E944B184B015C018092E103F2
:103150009092E203A092E303B092E403A091B8033B
:10316000E8EBF3E08A2F90E04FEF5FEF60E070E074
:103170004C195D096E097F09A9132AC08093B80311
:103180008091E503C0E0811108C080914305C82FFC
:10319000C37019F0C82FC695C69580914A01813039
:1031A00009F440C0882339F1823009F445C08330E6
:1031B00009F446C0CF91FF90EF90DF90CF90BF9081
:1031C000AF909F908F907F906F905F904F900895F9
:1031D000218D328D2901712C612C44155505660510
:1031E000770520F481509F5F3296C6CF2C0D3D1D90
:1031F000328F218FF8CF1092470180921105909263
:103200001205A0921305B092140589E2E8EBF3E0F1
:10321000A5E1B5E001900D928A95E1F781E08093F8
:103220004A01C8CF8C2F0E948E0ECC2319F20E9427
:10323000970B0E94970BBECF8C2F0E948007BACFAE
:1032400080914105882351F048E050E068E170E04A
:1032500083E495E00E949633109241056091110538
:103260007091120580911305909114050E946518C4
:10327000603171058105910508F49CCF10924A01D7
:1032800099CF8091420580FF08C08AEB97E09F9319
:103290008F930E9454050F900F9085E38093430510
:1032A00080914B0190914C01A0914D018093440578
:1032B00090934505A09346058FE7809347058FEFD0
:1032C0008093480548E050E068E170E083E495E0D1
:1032D0000E9496331092410508950F931F93CF9348
:1032E000DF938091380390913703892B8093FC0200
:1032F00090913603992391F0892B8093FC0220E072
:103300008EEF92E0FC013191CF0131112F5FF3E09C
:1033100084309F07B9F721111092360348E050E03E
:103320006EE273E08CEF92E00E94CA33892B09F4BD
:1033300041C088E0ECEFF2E0AEE2B3E001900D9224
:103340008A95E1F7E091B404F091B504309791F1DA
:103350000280F381E02D8CEF92E009958091420587
:1033600082FF28C080FF04C080E092E00E94BB047E
:10337000D0E0C0E00AEF11E08091420580FF0EC06E
:10338000FE01E450FD4F80811F928F931F930F9396
:103390000E9454050F900F900F900F902196C83007
:1033A000D10551F78091420580FF04C088EF91E07C
:1033B0000E94BB04DF91CF911F910F910895882344
:1033C00021F00E9407130E946D190895882339F097
:1033D00090913803982B909338030E946D190895AB
:1033E0008823D1F19CEF980F913A78F4EEEFF2E058
:1033F0009191891303C0DF0111971C9293E0E4308F
:10340000F907B1F70E946D19089590E2980F98306E
:1034100050F4877091E001C0990F8A95EAF7892FDF
:103420000E940713EFCF9BE5980F933028F490E0AC
:1034300080E00E943F07089598E5980F9B3128F49B
:1034400090E080E00E941A07089593E3980F93316B
:1034500018F460E00E9412160895CF93C82F8823B5
:10346000B1F08CEF8C0F813A00F5EEEFF2E084E0E2
:1034700093E0DF012D91C21761F08A179B07D1F706
:103480006C2F8CEF92E00E9400070E946D19CF9183
:1034900008952191C21303C0DF0111971C928E176A
:1034A0009F07B9F70E946D19EBCF80E28C0F88302F
:1034B00068F4C77021E030E001C0220FCA95EAF736
:1034C00080913803822B80933803DFCFEBE5EC0F3C
:1034D000E33040F4F0E0E557FE4F808190E00E9439
:1034E0003F07D5CFE8E5EC0FEB3150F4F0E0EE0FFD
:1034F000FF1FE257FE4F808191810E941A07C7CFBC
:1035000083E38C0F833118F661E08C2F0E94121632
:10351000BECFCF93C82F0E942D1A8C2F0E94F01976
:10352000CF9108950F931F93CF93DF93C62FD42F7E
:10353000022FFC0185818823A9F0609340050E9439
:10354000F40690933F0580933E05C77081E001C06B
:10355000880FCA95EAF70E94E619DF91CF911F9173
:103560000F91089580914005681332C080913E0507
:1035700090913F050E94D906883C910548F510E2DC
:103580001D0FCD17B9F080E28C0F883040F4C77062
:1035900081E001C0880FCA95EAF70E94DF19183050
:1035A00048F481E09D2F977001C0880F9A95EAF743
:1035B0000E94E619802F0E94891A183070F6D77081
:1035C00081E001C0880FDA95EAF70E94DF19C5CFC4
:1035D000C77081E001C0880FCA95EAF7F6CF811164
:1035E00008C089EA611101C08AEA0E94891A80E054
:1035F0000895813029F48EE46111F7CF8BE4F5CF83
:10360000823079F3833099F7F6CFAFE0B0E0EBE0AA
:10361000FBE10C94CB328E010F5F1F4F8AE0D80183
:103620001D928A95E9F786E3C82E81E0D82EF12C09
:10363000E12CAA24A394B12C26E3822E21E0922E21
:10364000F60181916F018F3F09F442C0F894E82F91
:10365000E295EF70F0E021A18F70A50102C0440F48
:10366000551F8A95E2F7CA01922F982B91A392A138
:103670008095892382A3789400C0E0E3F1E0712C67
:1036800031E021912F3F09F46BC0A22FA295AF70BA
:10369000B0E090968C9190E02F7002C09595879540
:1036A0002A95E2F780FD5CC0832F782A330F8E16AF
:1036B0009F0639F7F601319780818F3F11F00E9404
:1036C000CE1050EA5A95F1F7F801EE0DFF1D708209
:1036D0008FEFE81AF80A95E0E916F10409F0B0CF87
:1036E0004AE050E0B8018AE793E00E94CA330097AD
:1036F00041F02AE0F801AAE7B3E001900D922A9583
:10370000E1F700918503892B69F181E080933F0304
:103710000E94F40690933E0380933D0380913D0305
:1037200090913E030E94D906059700F110E00857DA
:103730001C4F45E050E06AE773E0C8010E94CA33BD
:10374000C12C892B51F085E0EAE7F3E0D801019024
:103750000D928A95E1F7CC24C39410923F0307C0E1
:1037600080E0A3CF80913F038111D8CFC12C0E946C
:103770001718D82EE0918503DE011B967D01882362
:1037800009F499C085E01D928A95E9F70E2F10E0A3
:1037900008571C4FB0904803B9E0BB1508F447C068
:1037A00027E731E240E651E0B701C8010E94D01797
:1037B000882309F45EC02EE131E24DE651E0B70105
:1037C000C8010E94D017882309F453C023E230E2D5
:1037D00045E751E0B701C8010E94D017882309F4DA
:1037E00048C021EC3FE140E851E0B701C8010E9428
:1037F000D0178823F1F1F9E0FB1508F453C01092BB
:1038000048038091840390E045E050E0B701885779
:103810009C4F0E94CA3321E020934603892BE1F498
:10382000D12C8D2D8C292F96EDE00C94E7328091D0
:103830004003909141030E94D906843F914008F0D3
:10384000AFCF80914603882359F385E0D7011D92BD
:103850008A95E9F710924603A0918403B0E0A85737
:10386000BC4F85E0FE013B9601900D928A95E1F7F1
:10387000D8CF809148038F3F31F08F5F809348030A
:103880008A3008F4BECF0E94F406909341038093DF
:1038900040038091420580FFD4CF8DE794E00E94E1
:1038A000BB04CFCF8091420580FFA9CF8AE694E088
:1038B0000E94BB04A4CFF0E0E857FC4F85E0ABE5E5
:1038C000B3E001900D928A95E1F765E070E08BE539
:1038D00093E00E94640780935A034091A50350E04F
:1038E0006091A40370E064567C4FC7010E94D733F7
:1038F0008B859C85909362038093610362E070E006
:10390000C7010E94640780936003809063039090D6
:103910006403A0906503B090660380914203909188
:103920004303A0914403B091450388169906AA0663
:10393000BB06D1F08092420390924303A0924403CD
:10394000B09245030E94171881110EC00E94E8062C
:10395000861A970AA80AB90A80927403909275038E
:10396000A0927603B092770388E0E7E6F3E0A3E461
:10397000B5E001900D928A95E1F710916F03112344
:1039800049F08091E503811105C00E948E0E80E010
:103990000E9480071093E50344CFCF931092380321
:1039A000C6E0EEEFF2E0DF018C2F1D928A95E9F779
:1039B00090E080E00E943F0790E080E00E941A07BC
:1039C000109237030E946D19E2EBF3E0DF011D92C4
:1039D000CA95E9F71092AD031092AB031092AC03B5
:1039E0000E946915CF910895AAE2B0E0EAEFFCE1E8
:1039F0000C94D5328FEC94E02091F100DC012D93F2
:103A0000CD01B4E0873D9B07B9F78091D0048330A6
:103A100009F470C0B8F4813009F447C0823009F469
:103A2000B1C08091E80083FF84C28091CF0490915F
:103A3000D0049A3008F07DC2E92FF0E0ED5FFB4C36
:103A40000C9450338A3009F48CC08B3009F46FC069
:103A5000893039F78091CF04813219F78091D304EE
:103A60009091D4040297E8F68091E800877F8093D4
:103A7000E8008091E80082FF38C09091F3008091C7
:103A8000F200029731F48091F100813011F086301C
:103A900021F48091F1008093C2048091E8008B773B
:103AA0008093E8000E94CC05BCCF8091CF04813A7E
:103AB00009F0B7CF8091E800877F8093E80080917C
:103AC000D3049091D404892B61F468E083EC94E0F2
:103AD00070E00E9478068091E8008B778093E80080
:103AE000A0CF60E090E080E0F3CF8091CD04811121
:103AF000C0CF97CF8091CF04813A09F092CF8091C7
:103B0000D3049091D404892B09F08BCF8091E800E5
:103B1000877F8093E8008091E80080FFFCCF809150
:103B200046018093F1008091E8008E77B9CF8091B3
:103B3000CF04813209F075CF8091D3049091D404E1
:103B4000892B09F06ECF8091E800877F8093E80091
:103B50000E94CC058091D104809346010E94CD1C27
:103B600060CF8091CF04813209F05BCF8091E80073
:103B7000877F8093E8000E94CC058091D2048093D7
:103B8000C1044FCF8091CF04813A09F04ACF809190
:103B9000E800877F8093E8008091E80080FFFCCFF9
:103BA0008091C104BECF803899F0823809F0C1C13C
:103BB0008091D3048F70873008F0BBC18093E900F7
:103BC0008091EB0085FB882780F91092E90006C000
:103BD0008091CB049091CC04911182609091E80087
:103BE000977F9093E8008093F1001092F10080910C
:103BF000E8008E779AC1882309F488C1823009F0E1
:103C000098C18091D10481118BC18091D3048F70B0
:103C10002FEF280F263008F08CC18093E900209107
:103C2000EB0020FF7DC1933031F48091EB00806286
:103C30008093EB0075C19091EB0090619093EB0045
:103C400021E030E001C0220F8A95EAF72093EA00D4
:103C50001092EA008091EB008860EACF811169C17F
:103C60001091D1041F778091E3008078812B80939D
:103C7000E3008091E800877F8093E8000E94CC05F4
:103C80008091E80080FFFCCF8091E3008068809302
:103C9000E30082E0111183E08093CD044AC1805893
:103CA000823008F046C12091D1043091D2042C3DDD
:103CB000E3E03E07A1F583E08A838AE289834FB778
:103CC000F894DE01139620E03EE051E2E32FF0E0AD
:103CD00050935700E49120FF03C0E295EF703F5FDF
:103CE000EF708E2F90E0EA30C0F0C7968D939D93D1
:103CF0002F5F243159F74FBF8091E800877F809371
:103D0000E8006AE270E0CE0101960E947806809198
:103D1000E8008B778093E8000CC1C096E7CF8091D4
:103D2000D3049091D404432F55274330510509F40F
:103D30004AC078F54130510509F47AC08BE590E02E
:103D4000E2EFF7E04230510509F0F3C02091E800BE
:103D5000277F2093E8002091D5043091D604821764
:103D6000930708F49C0140E02115310509F065C076
:103D7000411163C08091E80082FDC9CF8091CD04DC
:103D8000882329F2853019F28091E80083FFF2CF71
:103D9000BECF4132510509F43CC04232510509F011
:103DA000C8C08330910508F0C4C0FC01EE0FFF1FAE
:103DB000EB51FE4F0190F081E02D8E519E4FDC01C2
:103DC0008C9190E01AC0332721303105D1F02115B4
:103DD000310561F02230310509F0ABC0EFE5F8E0C4
:103DE000E4918E2F90E0EFE5F8E007C0E9E8F8E015
:103DF000E4918E2F90E0E9E8F8E0009709F499C08B
:103E0000A5CFE9E7F8E0E4918E2F90E0E9E7F8E04C
:103E1000F4CF8330910508F08CC0880F991FFC0106
:103E2000E551FE4F0190F081E02D89E090E08ECFCA
:103E300082E190E0EDE4F8E089CF8091CD04882321
:103E400009F465CF853009F462CF8091E80083FDE5
:103E50005ECF8091E80082FD8DCF8091E80080FFE9
:103E600083CF9091F3008091F2002115310519F074
:103E70008830910550F041E0089709F040E08091CA
:103E8000E8008E778093E8006FCF44914093F10073
:103E90003196215031090196E8CF803809F049C0A8
:103EA0008091E800877F8093E8008091CE04809322
:103EB000F1009DCE81113DC01091D1041230C8F5A2
:103EC0008091E800877F8093E8001093CE040E94E1
:103ED000CC05112311F084E005C08091E30087FD3B
:103EE000FACF81E08093CD0442E061EC81E00E9452
:103EF000EB0542E261EC82E00E94EB0542E261ECFC
:103F000083E00E94EB058091CD0413C08091D10421
:103F1000813079F481E0933009F080E08093CC0423
:103F20001092E9008091E800877F8093E8000E946A
:103F3000CC058091E80083FF0AC08091E800877F6C
:103F40008093E8008091EB0080628093EB00AA965A
:103F5000E3E00C94F1320E94CD1C2FEF84E39CE04F
:103F6000215080409040E1F700C0000088E19CE0D3
:103F70000FB6F894A895809360000FBE90936000F0
:103F8000FFCFA9E0B0E0E7ECFFE10C94D43288E089
:103F9000E3E4F5E0DE01119601900D928A95E1F7D8
:103FA0008091E503898749E050E067E673E0CE0140
:103FB00001960E94CA330091700310917103209101
:103FC000720330917303EFB7F8944091B9045091A4
:103FD000BA046091BB047091BC04EFBF401B510B4D
:103FE000620B730B443651056105710518F411E03D
:103FF000892B21F18091290190912A01865A9C4FA9
:104000004091280150E04A30510510F049E050E05D
:10401000BE016F5F7F4F0E94D73385E090E00E9422
:104020005032182F882351F00E94E80660937003E5
:10403000709371038093720390937303812F299679
:10404000E4E00C94F032A4E0B0E0E9E2F0E20C9499
:10405000D5324091560350915703609158037091A7
:1040600059032FB7F8948091B9049091BA04A091A4
:10407000BB04B091BC042FBF841B950BA60BB70BE0
:1040800011E084369105A105B10570F10E944B182D
:104090006E5F7F4F8F4F9F4F69837A838B839C83A3
:1040A0008091210190912201865A9C4F40912001DC
:1040B00050E04530510510F044E050E0BE016F5F24
:1040C0007F4F0E94D73384E090E00E945032182F37
:1040D000882351F00E94E8066093560370935703BB
:1040E0008093580390935903812F2496E3E00C9416
:1040F000F1324F925F927F928F929F92AF92BF92D6
:10410000CF92DF92EF92FF920F931F93CF93DF93A3
:104110000F92CDB7DEB7C62E4A015901482E880F3F
:104120005508C2010E945032782E882309F480C0BD
:10413000C20133E0880F991F3A95E1F7FC01E05086
:10414000FF4F438150E04115510511F041E050E02F
:1041500080509F4FFC0164817581665A7C4FCE016F
:1041600001960E94D733F4014081518162817381AD
:104170002FB7F8948091B9049091BA04A091BB0430
:10418000B091BC042FBF841B950BA60BB70B8436D4
:104190009105A105B10540F4B701C8010E9464076B
:1041A0009981891709F444C00C2C000CDD08C60164
:1041B0000E945032782E811113C0712C872D0F90E0
:1041C000DF91CF911F910F91FF90EF90DF90CF90F3
:1041D000BF90AF909F908F907F905F904F90089589
:1041E000C60123E0880F991F2A95E1F7FC01E050F2
:1041F000FF4F438150E0E416F50608F4A701805014
:104200009F4FFC0164817581665A7C4FC5010E94F5
:10421000D733B701C8010E94640799818913CDCFB4
:104220000E94E806F4016083718382839383C6CF82
:10423000A701B801C5010E94D733C0CFA2E0B0E00A
:10424000E4E2F1E20C94CF3282E0E82EF12C01E6B8
:1042500013E09E012F5F3F4F42E553E063E082E0B1
:104260000E947920C82E882339F100E080E01DC02B
:10427000D0907903D00E2D2D30E0A90144565C4F2B
:104280007A01E1E0F0E0EC0FFD1FE00FF11D10817D
:10429000FA019081191BB12E1B149CF0912F17FD70
:1042A00090E0191B111118C00F5F90917803091746
:1042B000F8F281110E9486188C2D2296E9E00C9468
:1042C000EB32BA94F70180818F5F808360E08D2D9F
:1042D0000E94EF1A8C2DE0CF1F5FF7018081815083
:1042E000808361E08D2D0E94EF1A8C2DDBCFA5E03D
:1042F000B0E0EDE7F1E20C94D0326B0185E0E82EFE
:10430000F12C0BE513E09E012F5F3F4F4EE453E08D
:1043100061E080E00E947920882349F095E0FE0169
:104320003196A9E4B3E001900D929A95E1F795E0FA
:10433000E9E4F3E0D60101900D929A95E1F7259614
:10434000E8E00C94EC32A8E0B0E0E9EAF1E20C9489
:10435000D63266EE7EEF90E080E00E94C43360E0EB
:1043600082E090E00E94A63360E083E090E00E944B
:10437000A63310923A031092390360E074E184E0AE
:1043800090E00E94C43360E086E090E00E94A63393
:104390006FEF87E090E00E94A63340E050E0BA0162
:1043A00088E090E00E94B83360E084E290E00E94F0
:1043B000A63360E087E190E00E94A63360E08CE0E5
:1043C00090E00E94A63360E08DE090E00E94A6336A
:1043D00019821A821B821C821D821E821F821886ED
:1043E00048E050E068E170E0CE0101960E9496330B
:1043F00040E050E0BA0180E290E00E94B83340E033
:1044000050E0BA018FE090E00E94B83340E050E005
:10441000BA0183E190E00E94B8332896E2E00C9460
:10442000F232CF93C82F8091870382FB992790F9AE
:104430009C17F9F0C0FB82F9809387036091860393
:104440007091870384E090E00E94C43382E00E9470
:10445000E9138091420580FF0CC01F92CF9383EE39
:1044600091E09F938F930E9454050F900F900F90AF
:104470000F90CF910895B0E0A0E0E1E4F2E20C9457
:10448000CE328C01FC018481882309F449C021E0EB
:10449000408151816281738195810E945014EC01A9
:1044A0008134FEE79F0709F440C070F480349E47D2
:1044B000D9F0FE01E851FC47E730F10508F06DC086
:1044C000E35FFB4C0C945033C2348EE7D807D9F12C
:1044D000C3349EE7D90769F7F80185818823D9F1AC
:1044E00083E00E9400140DC0F8018581882349F003
:1044F00061E083E090E00E94A63381E090E00E94BA
:10450000101480912D03877059F0F801858188235C
:1045100039F08091870382FF03C082E00E94E91393
:10452000CDB7DEB7EAE00C94EA32F8018581882342
:1045300031F081E00E9400140E94C713E2CF81E0B5
:104540000E94D713F9CFF8018581882311F082E00A
:10455000F1CF82E0F5CF83E00E94D713D2CF26E2DD
:1045600041EE61EEC8010E94921ACBCF27E245EEE0
:1045700065EEF8CF26E241EE60EEF4CF27E245EE9D
:1045800064EEF0CF26E241EE62EEECCF27E245EE9C
:1045900066EEE8CF28E241E0EBCFF8018581882381
:1045A00009F4E0C310924005CE019057839708F0BC
:1045B000C3C384E090E00E9490339093870380937C
:1045C0008603FE01E150F047E232F10520F4EC5E93
:1045D000FB4C0C945033809186038160809386035A
:1045E00095C0809187038860809387038FC08091F6
:1045F00086038260F3CF809186038460EFCF809141
:1046000086038860EBCF809187038160EDCF809136
:1046100087038260E9CF809186038061DFCF80913C
:1046200086038062DBCF809186038064D7CF0E94AF
:10463000CD1C809186038068D1CF809186038C60E9
:10464000CDCF809187038360CFCF809186038E7F0B
:10465000C5CF80918703877FC7CF809186038D7FE9
:10466000BDCF809186038B7FB9CF80918603877FF2
:10467000B5CF809187038E7FB7CF809187038D7FE1
:10468000B3CF809186038F7EA9CF809186038F7DE3
:10469000A5CF809186038F7BA1CF0E94CD1C8091F6
:1046A00086038F779BCF80918603837F97CF8091FE
:1046B00087038C7F99CF8091860382FB992790F99D
:1046C00021E0922790FB82F990FB83F987CF8091BC
:1046D0008703982F909591708E7F892B90FB81F99D
:1046E00083CF90918603892F8F7B96FF806476CF4E
:1046F0000E94CD1C90918603892F97FB87F98058E3
:104700006DCF61E08EE090E00E94A6336091860359
:104710007091870384E090E00E94C4330E94CD1C16
:10472000F0CE60E0EFCF90918603892F8F7E94FFCB
:10473000806154CF90918603892F8E7F90FF816096
:104740004DCF90918703892F877F93FF88604CCF4F
:1047500085E312C380914305982F937021E092273F
:104760008C7F892B8093430510924A0180914105EB
:104770008160809341058091420580FFC2CE1F92E7
:104780009F9389E591E09F938F9389E891E09F93B0
:104790008F930E9454050F900F900F900F900F90E1
:1047A0000F90AFCE48EA54E162EB74E10E947A07C1
:1047B000A8CE42EB54E168EA74E1F8CF41E255E15A
:1047C0006BE275E1F3CF4BE255E161E275E1EECFCB
:1047D00047E055E164E175E1E9CF44E155E167E087
:1047E00075E1E4CF4DEE54E16AEF74E1DFCF4AEFBB
:1047F00054E16DEE74E1DACF43E555E16EE575E124
:10480000D5CF4EE555E163E575E1D0CF81E00E945B
:10481000751477CE85E0FBCF8DE0F9CF82E1F7CF3D
:1048200090914205892F8E7F90FF81608093420591
:1048300080FF05C082ED91E00E94BB0462CE80EC57
:1048400091E0FACF6FEF7FEF90E080E00E94C433F9
:104850000E94AB1F8091870382FB882780F991E03B
:1048600089270E941122F8018581C081D181882386
:1048700009F44AC0CE010E941813F82E682FCE0109
:104880000E948C13BE018F2D0E94CA110E94E91153
:10489000D82FC92FA82EF801C580B680B2943FE06A
:1048A000B32280912D038770F1F0EC2CCC20E1F045
:1048B000892F807F803451F080E28D0F883098F00E
:1048C000B11004C0892F807E803269F08091870307
:1048D00082FF09C082E00E94E91380912D03877056
:1048E000EE24E3948111E12CDC2ED2942FE0D2222D
:1048F000FBE0FD1508F46DC0ED2DF0E0EA5CFB4C2B
:104900000C94503380E0ADCFCE010E945913F82EA5
:10491000B9CF2C2F2F70F22EC07F19F0F29490EFA8
:10492000F922CC20B9F0FF2069F080E28D0F8830A9
:1049300010F0A11009C080913803F82AF0923803D2
:104940000E946D198D2F43C080913703F82AF09291
:104950003703F6CF8D2F0E94F019FF20D1F1D05EE2
:10496000D83010F0A11004C08F2D0E94071306C08C
:10497000F09480913703F822F09237030E946D196A
:1049800028C03C2F3F70F32EC07FC03219F0F29444
:1049900080EFF822AA2059F081E0A81609F479C026
:1049A000CC2009F485C0BB2009F447C0CBCF80914F
:1049B000870382FD3EC0CC20B1F1FF2039F0809109
:1049C0003803F82AF09238030E946D1980E00E94A3
:1049D0002D1A2D2D2850330B2430310510F40E9450
:1049E0003A18EE20A9F080912D0380FD11C0F80146
:1049F00015828695869586950E940014C8010E94AE
:104A00003B2280912D038695869586950E94D7132B
:104A100020E0F80140815181628173818481958118
:104A20000E9450147DCD80E00E94F019FF2089F291
:104A30009BCFCC20A1F0B11004C08F2D0E94E619AD
:104A4000C8CF91E0B912C5CF809136039F2D98232E
:104A5000F91609F4BECFF82AF0923603BACFB11096
:104A6000B8CF8F2D0E94DF19909136038F2D8923A7
:104A700029F08F2D8095892380933603809105033B
:104A80009F2D982309F4A5CFF094F822F092050306
:104A9000A0CFCC2029F0E5E0EB1508F49ACFCDCFDC
:104AA000F4E0FB1508F495CF8F2D0E94DF1991CF0C
:104AB000BB20D1F329E3A21209C03FEF87EE93E0B8
:104AC000315080409040E1F700C000008D2F0E94DF
:104AD000F0197FCF8C2F86958695837069F0813091
:104AE00009F077CF8D2F9C2F9370C11002C080E00A
:104AF00090E00E941A076DCF8D2F9C2F9370C110EC
:104B000002C080E090E00E943F0763CF6C2D8D2FA4
:104B10000E9412165ECF8C2F837009F03FC0C11027
:104B200058CF4D2F429546954770440F440F2D2F77
:104B30002F7030E0042E02C0220F331F0A94E2F7D8
:104B400090E080E0D4FF09C08FE090E002C0880FC1
:104B5000991F4A95E2F780959095C695C695C370C2
:104B6000C23099F078F44091390350913A03C13042
:104B700039F0822B932B842395230E94101429CF84
:104B8000242B352B822B932BF8CF822B932B209128
:104B9000390330913A0382279327EFCF8695CC20B3
:104BA00011F08C2F8170882309F413CF4D2F42957B
:104BB00046954770440F440F2D2F2F7030E0042E80
:104BC00002C0220F331F0A94E2F790E080E0D4FF86
:104BD00009C08FE090E002C0880F991F4A95E2F764
:104BE00080959095C695C695C370C23099F078F4BB
:104BF00040914B0550914C05C13039F0822B932BDD
:104C0000842395230E94C213E4CE242B352B822BC0
:104C1000932BF8CF822B932B20914B0530914C0591
:104C200082279327EFCFCF70CC2029F08C2F0E94C2
:104C300000148D2F03CF8D2F0E94DF198C2F0E941F
:104C4000D713C7CE8D2FE2EFAE1699F1EA1570F0AB
:104C5000F0EFAF16D1F021EFA21691F0CC2009F4BD
:104C60005BC0B1106FCE8C2F8F7127C033EFA316AE
:104C700039F194EFA912F2CF8091870382FD2EC003
:104C80008C2F8F71CC20D9F218C0CC2069F0E4E0D1
:104C9000EB1508F49ECECF7181E090E002C0880F42
:104CA000991FCA95E2F7B8CFF5E0FB1508F491CE4D
:104CB000F2CF8C2F8F71C110C2CF0E94001489CE09
:104CC00090E080E0CC2009F49DCFCF7181E090E0AE
:104CD00002C0880F991FCA95E2F794CFCC2089F0C3
:104CE000CF718C2F0E9400148091870382FF07C030
:104CF00028E0C29FC0011124836080932D038C2F74
:104D0000DCCF81E00E94E91331E03B1508F061CE71
:104D100082E00E94E9135DCEBB2059F0893309F08F
:104D2000D5CE8FEF97EEE3E081509040E040E1F781
:104D3000CBCE8C2F8F7183CFC631FCE7DF0751F5C7
:104D4000809138038A7A91E009F490E0909304030B
:104D500069E2811165E38CEF92E00E9400070E94F6
:104D60006D19CFCBC6312CE7D20709F064C0809112
:104D700004038111EDCC89E2EEEFF2E024E033E0B0
:104D80009191891303C0DF0111971C922E173F07E1
:104D9000B9F7E5CFC3303CE7D30709F453CD08F0AA
:104DA0003AC0C1309CE7D90709F452CD08F038CD9C
:104DB000C115DC4709F057CD0E94CD1CFFEF24E35D
:104DC0003CE0F15020403040E1F700C0000081E0BD
:104DD0008093E00080E28093D8001092C9008FE1B8
:104DE0009EE40197F1F700C0000087E090EBDC0142
:104DF00080934D0590934E05A0934F05B0935005B9
:104E000088E19CE00FB6F894A895809360000FBEEF
:104E100090936000FFCFCB352CE7D20709F472CD19
:104E2000CC353CE7D30709F415CDCA35DC4709F08A
:104E30001ACD81E016CD809138038272FE01E052D6
:104E4000F847E531F10508F00ECDEE5BFB4C0C9414
:104E50005033CF93DF9380912C03807F09F04DC0B6
:104E600080912B03882309F448C0E09110055091EC
:104E7000D704C0912703D091260360912803709135
:104E8000290347E05E17C9F18E2F90E0E49FF001FF
:104E90001124E852FB4F2481222391F1489FF00115
:104EA000499FF00D1124DF01A852BB4F11962C91A0
:104EB00011972C1325C02C912D1322C015962C91DF
:104EC000159721111DC012962D913C91261B370B71
:104ED000283C3105A8F480912C038F708061809369
:104EE0002C03E252FB4F80818F708061808386E2C9
:104EF00093E00E943B220E940E13DF91CF91089510
:104F0000FC013196E770BECFA4E1B0E0EAE8F7E239
:104F10000C94CC328C0186E0F801DE011F960190E2
:104F20000D928A95E1F7F8018481E58096E2A92E39
:104F300093E0B92E90912A03911128C0882319F18A
:104F4000EE20F1F0C8010E941514F82E8823C1F05C
:104F500087E0F801D50101900D928A95E1F78091E3
:104F60002A03813031F480912603909127030E9417
:104F70004C130E9429278F2D6496ECE00C94E832A4
:104F8000C8010E943B22FF24F394F5CFD080C1805A
:104F900082809380F0902B03209128033091290385
:104FA000A401421B530BFF2009F4D9C0483C510512
:104FB00008F092C08823F9F29091270380912C0386
:104FC000282F207F09F056C0C91214C090912603E3
:104FD000D91210C0E11048C08F70806180932C03FB
:104FE00086E293E00E943B2280912C03F8018683A5
:104FF000F12CC1CFE11038C06C2D8D2D0E945D05C4
:105000006C2D8D2D0E945D05E82E8111F1CFDF867C
:10501000C88A8F8598890E944C13292F22952F705A
:10502000243058F49F70223088F0992399F0F801C9
:105030009681907F79F4FE2C9ECF2A5F2F702230CC
:1050400068F0C8010E943B22EF2CF5CF992311F0A4
:10505000882389F3805E883070F3F3CF803F58F364
:10506000815F833070F7E7CF80912C03816080935C
:105070002C03BECFC91207C090912603D91203C0DA
:10508000EE2009F48DC0C8010E941514882309F48C
:1050900077CFEE2009F474CF80912C03803288F012
:1050A0002091260330912703398728879B868A869B
:1050B00090912A039C871D868E87CE0108960E94B8
:1050C0003B2287E0F801A6E2B3E001900D928A95B9
:1050D000E1F70E94292757CF90912C03292F207F99
:1050E00051F486E293E00E943B2287E0F5011192A1
:1050F0008A95E9F77DCF882309F43DCF8091270376
:105100008C1110C080912603D8120CC0E1100AC087
:105110009683C8010E943B2287E0F50111928A958F
:10512000E9F729CFC8010E941514882309F428CF74
:10513000EE2009F425CF80912C03803210F22091CB
:105140002603309127033A8329839C828B82909196
:105150002A039D831E828F83CE010196B0CF483CE7
:105160005105D0F6882309F40ECFFE2CEE2009F469
:1051700007CF809127038C1120C080912603D8127D
:105180001CC080912C0380FD0FC0982F907F61F090
:105190008683903F31F0982F907F905F8F70892B9E
:1051A0008683C8010E943B2287E0F801A6E2B3E0B3
:1051B00001900D928A95E1F7DECEC8010E94151488
:1051C00081117FCF80912C03816080932C03C801D3
:1051D0000E943B22D0CEABE1B0E0E1EFF8E20C94CC
:1051E000D4324E8B5F8B688F798F8A8F9B8F192F6C
:1051F0009111109237031D8A86E0FE017696DE013A
:105200001F9601900D928A95E1F70A8D002341F0D7
:1052100021E04F85588969897A89C8010E94501414
:105220000B8B1C8B87E0FE013F96DE0118960190E8
:105230000D928A95E1F7CE0108960E94842781118C
:105240000CC087E0FE013896DE01119601900D92A8
:105250008A95E1F78C8581110BC017E080911005CC
:105260009091D704891331C06B96E4E00C94F0322E
:105270002091D70430E0C9010196877099274091A9
:1052800010054817190699F097E0929FD001939F57
:10529000B00D1124A852BB4FFE01319601900D9222
:1052A0009A95E1F78093D7040E940E13D6CF0E94FF
:1052B000CD1C1092D7041092100587E0E6E2F3E0CF
:1052C000DF011D928A95E9F7C8CF819FC0011124A3
:1052D00088529B4F0E948427882331F280911005C9
:1052E00090E001968770992780931005B7CFA6E0CC
:1052F000B0E0EDE7F9E20C94D4320E94F4068C01A0
:1053000080913B0390913C038017910781F01982B3
:105310001A820E94F406682F49815A81792F80E011
:1053200090E00E94EB2810933C0300933B032696E9
:10533000E4E00C94F0321F920F920FB60F921124FA
:105340002F933F934F935F936F937F938F939F938D
:10535000AF93BF93CF93DF93EF93FF93D091E90087
:10536000DF708091EC00C82FC17080FDC0E8109202
:10537000E9008091F000877F8093F00078940E948C
:10538000F41C1092E9008091F00088608093F00096
:10539000CD2BCF70C093E900FF91EF91DF91CF91BA
:1053A000BF91AF919F918F917F916F915F914F913D
:1053B0003F912F910F900FBE0F901F9018951F9245
:1053C0000F920FB60F9211242F933F934F935F9339
:1053D0006F937F938F939F93AF93BF93EF93FF93BD
:1053E0008091E10082FF15C08091E20082FF11C030
:1053F0008091E1008B7F8093E1002091BF042F5FBB
:10540000822F62E30E94FD32992309F4C0C02093E9
:10541000BF048091DA0080FF28C08091D80080FF0F
:1054200024C08091DA008E7F8093DA008091D900C9
:1054300080FFE3C080E189BD82E189BD09B400FE3F
:10544000FDCF81E08093CD048EED97E00E94BB04F8
:105450008091C004811109C00E947C050E941D0634
:105460008091E20084608093E2008091E10080FFFF
:105470001BC08091E20080FF17C08091E2008E7F08
:105480008093E2008091E20080618093E20080914D
:10549000D80080628093D80019BC85E08093CD0449
:1054A00086EE97E00E94BB048091E10084FF2FC04C
:1054B0008091E20084FF2BC080E189BD82E189BD3B
:1054C00089B5982F917080FFFBCF8091D8008F7D98
:1054D0008093D8008091E1008F7E8093E1008091DD
:1054E000E2008F7E8093E2008091E20081608093F1
:1054F000E2008091CE04882309F489C084E080937F
:10550000CD048AEE97E00E94BB048091CD04809187
:10551000E10083FF2BC08091E20083FF27C08091D0
:10552000E100877F8093E10082E08093CD041092B8
:10553000CE048091E1008E7F8093E1008091E200B3
:105540008E7F8093E2008091E20080618093E20090
:1055500042E060E080E00E94EB058091F00088600E
:105560008093F0008EEE97E00E94BB04FF91EF91D4
:10557000BF91AF919F918F917F916F915F914F916B
:105580003F912F910F900FBE0F901F901895109282
:10559000BF048091BE04882309F43BCF8091CD04E1
:1055A0008430C1F49091E9009F702091EC00822F2B
:1055B000817020FD80E8892B93E09093E900909121
:1055C000EB0090FF04C09091EE0097FD08C08F7033
:1055D0008093E9001092BE041CCF1092F1009091CC
:1055E000E80095FDFACF9091E80090FFF0CF909100
:1055F000E8009E779093E800EACF19BC1092CD04A2
:1056000082EE97E00E94BB041092C0042ECF8091DE
:10561000E30087FD93E09093CD0473CF78941F92BD
:105620001FB61F9211248F939F93AF93BF938091C6
:10563000B9049091BA04A091BB04B091BC04019646
:10564000A11DB11D8093B9049093BA04A093BB042B
:10565000B093BC04BF91AF919F918F911F901FBEDB
:105660001F9018951F921FB61F9211248F939F931E
:10567000AF93BF938091B804811113C08091B90496
:105680009091BA04A091BB04B091BC044196A11DB5
:10569000B11D8093B9049093BA04A093BB04B09356
:1056A000BC04BF91AF919F918F911F901FBE1F901F
:1056B0001895CDB7DEB762970FB6F894DEBF0FBE70
:1056C000CDBF85B7806885BF85B7806885BF84B743
:1056D000877F84BF0FB6F894A89580916000886199
:1056E00080936000109260000FBE80E890E00FB6DB
:1056F000F89480936100909361000FBE8AEE96E16A
:105700009093FB028093FA020E947C050E941D0682
:105710008091E20084608093E20078948091CD04CF
:105720008823A1F01091E9001F709091EC00892F5F
:10573000817090FD80E8182B1092E9008091E800BC
:1057400083FD0E94F41C1F701093E90082E084BD69
:1057500093E095BD9AEF97BD80936E00109274030D
:1057600010927503109276031092770355985D9806
:105770008FE891E00197F1F700C000000E94970BBD
:1057800080933B010E94171881110E94643180911F
:105790003B0192E0811190E09093A40382E0A82F56
:1057A000A91BA093790390913B018093A50390914D
:1057B0003B018093780358EDA52E51E0B52E46EDC0
:1057C00051E08A01950161E070E0F90181919F014A
:1057D000E82FE295EF70F0E0F1A08F706B0101C04F
:1057E000CC0C8A95EAF79C2D90959F2191A382A1DC
:1057F0008C2982A3D8018D918D01E82FE295EF705D
:10580000F0E0F1A08F706B0101C0CC0C8A95EAF733
:105810009C2D90959F2191A382A18C2982A3B1E018
:105820002A3D3B0791F6EFE8F1E03197F1F700C030
:1058300000001091A50366EA73E0FB018E2F861B22
:10584000811708F471C280913B0181112CC085E061
:10585000EEE4F1E0DE01179601900D928A95E1F7F2
:105860008F81809336018885809337018985809365
:1058700038018A85809339018B8580933A0186E0CF
:10588000E3E5F1E0DE01119601900D928A95E1F7D2
:10589000FE013196A0E3B1E0CE01079621912D9350
:1058A000E817F907D9F780913B0195E0811190E065
:1058B0009093850385E0891B8093840306E311E0C0
:1058C0004BE3C42E41E0D42EF80181918F018F3F2C
:1058D00011F00E94CE10C016D106B1F700E311E01E
:1058E000D8018D918D018F3F11F00E94CE10B1E053
:1058F00006331B07A9F78AE0E8E8F3E0DF01282F69
:105900001D922A95E9F7EAE7F3E0DF011D928A95F7
:10591000E9F790E080E00E949033863E9E4F11F0C0
:105920000E94A32182E090E00E948833182F809388
:10593000420584E090E00E94903390938703809327
:10594000860383E090E00E94883390E00E94101468
:10595000109215058FEF9FEF90932F0580932E05E2
:1059600090933105809330059093330580933205F1
:1059700090933505809334059093370580933605D1
:10598000909339058093380590933B0580933A05B1
:1059900090933D0580933C051092B8039093D203F9
:1059A0008093D1039093D4038093D3039093D60331
:1059B0008093D5039093D8038093D7039093DA0311
:1059C0008093D9039093DC038093DB039093DE03F1
:1059D0008093DD039093E0038093DF0390E080E009
:1059E0000E949033863E9E4F71F010FF08C08AE0FF
:1059F00096E09F938F930E9454050F900F900E9402
:105A0000A3210E94411981E08093410548E050E0C4
:105A100068E170E083E495E00E94783310924105DC
:105A2000809143058C7F71F48091420580FF08C00E
:105A300085EB95E09F938F930E9454050F900F90F4
:105A40000E9441198091420580FF89C08BE995E051
:105A50009F938F930E945405809142050F900F9061
:105A600080FF7DC08091430583701F928F938CE7E8
:105A700095E09F938F930E945405809142050F906B
:105A80000F900F900F9080FF6AC08091430586951C
:105A900086951F928F938FE595E09F938F930E9439
:105AA0005405809142050F900F900F900F9080FF4A
:105AB00056C0809144051F928F9381E495E09F9397
:105AC0008F930E945405809142050F900F900F9084
:105AD0000F9080FF44C0809145051F928F9383E211
